:020000040800F2
:1000000000000120917D0008353A0008393A0008C7
:100010003D3A0008413A0008453A00080000000057
:10002000000000000000000000000000493A000845
:100030004D3A000800000000513A0008553A000807
:10004000E17D0008E17D0008E17D0008E17D000818
:10005000E17D0008E17D0008E17D0008E17D000808
:10006000E17D0008E17D0008E17D0008E17D0008F8
:10007000E17D0008E17D0008E17D0008E17D0008E8
:10008000E17D0008E17D0008E17D0008E17D0008D8
:10009000E17D0008E17D0008E17D0008E17D0008C8
:1000A000E17D0008E17D0008E17D0008E17D0008B8
:1000B000E17D0008E17D0008E17D0008E17D0008A8
:1000C000E17D0008E17D0008E17D0008E17D000898
:1000D000E17D0008E17D0008E17D0008E17D000888
:1000E000E17D0008E17D0008E17D0008E17D000878
:1000F000E17D0008E17D0008E17D0008E17D000868
:10010000E17D0008E17D0008E17D0008E17D000857
:10011000E17D0008E17D0008E17D0008E17D000847
:10012000E17D0008E17D0008E17D0008E17D000837
:1001300000000000000000000000000000000000BF
:1001400000000000000000000000000000000000AF
:10015000000000000000000000000000000000009F
:10016000000000000000000000000000000000008F
:10017000000000000000000000000000000000007F
:10018000000000000000000000000000000000006F
:10019000000000000000000000000000000000005F
:1001A000000000000000000000000000000000004F
:1001B000000000000000000000000000000000003F
:1001C000000000000000000000000000000000002F
:1001D000000000000000000000000000000000001F
:0401E0005FF8E0F1F3
:1001E400134B002B08BF114B9D46A3F5803A002109
:1001F4008B460F461148124A121A07F089F90D4B23
:10020400002B00D098470C4B002B00D098470020BF
:10021400002104000D000B4807F026F907F052F9FD
:100224002000290007F044FA07F024F90000080030
:10023400000000000000000000000000C4000020D6
:10024400F4020020A174000830B583B002466C4665
:100254000B1C0E4918BF01230868496802F0030209
:1002640003C40B4D02FA03F103244FF0C0400DF117
:10027400080E2A706B707144048011F8083C054A1A
:10028400A34043F48053138003B030BD4C80000876
:10029400C40000200000026070B4064A4FF0C0435E
:1002A4002026212522241E8010801D8011801C8080
:1002B40070BC70470000026030B4194B1B78022BED
:1002C40025D0032B1ED0012B0ED0164B4FF0C0426D
:1002D4002025212415801880148019804FF0C043F4
:1002E40022221A8030BC7047C0F59F7001300D4B3C
:1002F40080B24FF0C042202521241580198014803B
:100304001880EBE7C1F1EF01064B89B2F1E7C1F5C3
:100314009F71C0F1EF000131024B80B289B2D5E781
:10032400C400002000000260F0B52D4C2478022C9B
:1003340043D0032C38D0012C2CD00E461C46074643
:100344001346014622463046264D0B444FF0C04426
:100354004FF0500E0244013BA4F800E09BB2298008
:100364004FF0510E5221013AA4F800E092B22B80D2
:100374004FF0530C21804FF0200E2121222328809E
:10038400A4F800C02A80A4F800E02F8021802E80E9
:100394002380F0BDC0F59F76C2F5A074201A013603
:1003A40080B2B6B20F46CFE7C3F1F004641AC1F1CC
:1003B400EF018FB20646A1B2C6E71D46C1F59F768E
:1003C400C3F5A073C2F1F004591A241AC0F1EF075F
:1003D400013688B21346B6B2A1B2BFB22A46B3E719
:1003E400C400002000000260024B1A88188880B202
:1003F4001880704700000260014B1880704700BFEE
:100404000000026030B4124C00FB01F02388238802
:10041400C1F110019BB21D015A0005F4702502F4CC
:1004240070622A43C3F34303134301FB0300020A2C
:10043400430922F4FF6222F0070203F4FC6313432E
:10044400C0F3C400184380B2208030BC704700BFA2
:100454000000026030B4114C00FB01F023882388B3
:10046400C1F120019BB29D025A0105F0787502F496
:100474007C422A4303F01F03134301FB0300C20B16
:10048400830A02F4FC3203F4FC631343C0F3441004
:10049400184380B2208030BC704700BF0000026067
:1004A400E12919D0FF2912D00F2904D0400190FB73
:1004B400F1F0C0B27047C0EB0010094A033082FB70
:1004C4000032C3171044C3EBA000C0B27047054B01
:1004D400184490F8EC007047024B1844007A7047B7
:1004E400932449924C8000084A1E49B105490B885F
:1004F4000B88013A9BB220F8023B0B80531CF6D1C7
:10050400704700BF000002604B1E31B1034930F850
:10051400022B013B0A805A1CF9D17047000002608B
:10052400002944D0F0B5224E224D4C1E30F8023B37
:100534002A8803F00F02C2EB0212033286FB027117
:100544002F881144BFB24FEA872C4FEA471ED217B7
:100554000CF0787C0EF47C4EC2EBA10107F01F076F
:100564004CEA0E021743C1F1200E0EFB07F74FEAC7
:10057400832C4FEA031EDA080CF0707C0EF4704EE4
:100584004CEA0E0302F01E021A4301FB0273D90B5C
:100594009A0A01F4FC3102F4FC620A43C3F34413E3
:1005A40013439BB2013C2B80631CBFD1F0BD704749
:1005B40093244992000002602DE9F043950254010E
:1005C40005F0787504F47C442C4302F01F022243A6
:1005D400002967D04F1EBFB2334E344D0744013853
:1005E40010F801CF29880CF00F0803FB08F886FBEC
:1005F4000814B5F800E04FEAE878C8EB24141FFAB1
:100604008EFE02FB04F94FEA8E214FEA4E1801F0E8
:10061400787108F47C4841EA08080EF01F0E48EA95
:100624000E0EC4F1200101FB0E914FEA1C1CCC0BF1
:100634004FEA912803FB0CFC04F4FC3E08F4FC6430
:10064400C1F344114EEA04040C43A4B286FB0C1E0D
:100654002C8029882C884FEAEC7CCCEB2E1EA4B28B
:10066400A1024FEA441C02FB0EF801F078710CF46D
:100674007C4C41EA0C0104F01F040C43CEF1200130
:1006840001FB04814FEAD13E8C0A0EF4FC3E04F4D3
:10069400FC644EEA0404C1F34411214389B2874245
:1006A40029809DD1BDE8F083BF3CB62200000260E2
:1006B4002DE9F0431301940204F0707403F47043C1
:1006C400D508234305F01E051D4300295FD04F1EA6
:1006D400BFB2304E304C074402F00F02013810F81C
:1006E40001EF23880EF00F0C02FB0C6C21889CF8A0
:1006F400088089B28B024FEA411C05FB08F903F01C
:1007040078730CF47C4C43EA0C0C01F01F014CEAA6
:100714000101C8F1200303FB01934FEAD33C990A7A
:100724000CF4FC3C01F4FC614CEA01014FEA1E1E8E
:10073400C3F3441302FB0E6E0B439BB22380238846
:1007440021889EF808C089B28B024FEA411E05FB3E
:100754000CF803F078730EF47C4E43EA0E0E01F0AD
:100764001F014EEA0101CCF1200303FB01834FEA90
:10077400D33E990A0EF4FC3E01F4FC614EEA0101F9
:10078400C3F344130B439BB287422380A7D1BDE834
:10079400F08300BF4C800008000002601D4BF0B5E0
:1007A4001A4492F8EC6099B31B4D4C1EC6F1200715
:1007B4002B88298830F8022B89B24FEA812E4B010D
:1007C4000EF0787E03F47C434EEA030301F01F012C
:1007D400194307FB01F14FEA822E53010EF0787E94
:1007E40003F47C434EEA030302F01F021A4306FBA0
:1007F4000213D90B9A0A01F4FC3102F4FC620A4395
:10080400C3F3441313439BB2013C2B80631CCFD12D
:10081400F0BD00BF4C80000800000260002943D0F6
:100824002DE9F041214E224D4C1E30F8023B29881F
:1008340003F00F0702FB07F72988A6FB07E789B235
:100844004FEA812C4FEA411E0CF0787C0EF47C4E6A
:100854003F094CEA0E0E01F01F014EEA0101C7F1F7
:10086400200C0CFB01FC4FEA83284FEA031ED90835
:1008740008F070780EF4704E48EA0E0301F01E0181
:10088400194307FB01C3DF0B990A07F4FC3701F492
:10089400FC613943C3F344130B439BB2013C2B80EB
:1008A400631CC2D1BDE8F081704700BFBF3CB622D3
:1008B4000000026000293BD0F0B51E4F1E4E1144CB
:1008C40030F8025B12F801EB4FEA852C6B01348897
:1008D4000CF0787CBE44348803F47C434CEA030374
:1008E40005F01F059EF8ECC0A4B21D430CFB05F5F2
:1008F400A3024FEA441E03F078730EF47C4E43EADD
:100904000E0E04F01F044EEA0404CCF1200303FB92
:100914000453DD0B9C0A05F4FC3504F4FC642C43FD
:10092400C3F3441323439BB28A423380C8D1F0BD3E
:10093400704700BF4C8000080000026000293AD0D4
:10094400F0B51D4E1D4D11442B882C8812F801EB77
:10095400A4B2A7026301B6449EF8ECC007F078770E
:1009640003F47C433B4304F01F0730F8024B1F435E
:10097400CCF1200303FB07F74FEA041EA30203F0A4
:1009840070730EF4704EE40843EA0E0E04F01E0475
:100994004EEA04040CFB0473DF0B9C0A07F4FC37D7
:1009A40004F4FC643C43C3F3441323439BB28A42E0
:1009B4002B80C9D1F0BD70474C8000080000026054
:1009C4000729F0B553D9A1F1080E4FEADE0E0EF156
:1009D400010E554B164600F11005724416F8014BF2
:1009E4001035E7075BBF1F881F8835F8207CBFB22E
:1009F4001F80A7075BBF1F881F8835F81E7CBFB206
:100A04001F8067075BBF1F881F8835F81C7CBFB237
:100A14001F8027075BBF1F881F8835F81A7CBFB269
:100A24001F80E7065BBF1F881F8835F8187CBFB29C
:100A34001F80A7065BBF1F881F8835F8167CBFB2CE
:100A44001F8067065BBF1F881F8835F8147CBFB200
:100A54001F8027065BBF1C881C8835F8124CA4B283
:100A640096421C80BAD100EB0E1001F007011378F6
:100A7400002955D0DC0754D42B4A1488128892B22A
:100A8400294C01294FEA5303228049D0DA075ABF7F
:100A9400228822884288244C58BF92B202294FEA05
:100AA400530322803CD0DF075ABF228822888288E1
:100AB4001D4C58BF92B203294FEA530322802FD012
:100AC400DE075ABF22882288C288174C58BF92B2C8
:100AD40004294FEA5303228022D0DD075ABF22881B
:100AE40022880289104C58BF92B205294FEA530359
:100AF400228015D0DA075ABF2288228842890A4CFC
:100B040058BF92B206294FEA5303228008D0DB076C
:100B14005ABF238823888389034A58BF9BB2138012
:100B2400F0BD0288ACE700BF000002602DE9F04F81
:100B3400072983B040F2AB82A1F10803DB0801333B
:100B44001C4617460193DFF810E0024B224400F1E3
:100B540012063DE000000260932449921D881D881E
:100B6400ADB21D80A50700F182801D881D88ADB23D
:100B74001D80650700F1C6801D881D88ADB21D80EB
:100B8400250700F10A811D881D88ADB21D80E50688
:100B940000F14E811D881D88ADB21D80A50600F1AF
:100BA40092811D881D88ADB21D80650600F1D68135
:100BB4001D881D882406ADB21D8000F11A821C8890
:100BC4001C889742A4B21C8006F1120600F05882D9
:100BD40017F8014BE507C1D536F8129C1D8809F0BA
:100BE4000F08C8EB081808F103088EFB085B4FEAEE
:100BF400091A4FEA892505F070754FEAD909B3F847
:100C040000C00AF4704A45EA0A0AC34409F01E0502
:100C14004FEAE8781FFA8CFCC8EBAB084AEA0505F2
:100C240008FB05FA4FEA8C294FEA4C1509F078794C
:100C340005F47C4549EA05050CF01F0CC8F12008B1
:100C440045EA0C0C08FB0CA54FEAD5384FEA952C65
:100C540008F4FC380CF4FC6C48EA0C0CC5F344159D
:100C64004CEA0505ADB21D80A5077FF57EAF36F8C9
:100C7400109C1D8809F00F08C8EB081808F1030838
:100C84008EFB085B4FEA091A4FEA892505F0707557
:100C94004FEAD909B3F800C00AF4704A45EA0A0ACF
:100CA400C34409F01E054FEAE8781FFA8CFCC8EB30
:100CB400AB084AEA050508FB05FA4FEA8C294FEA16
:100CC4004C1509F0787905F47C4549EA05050CF0E2
:100CD4001F0CC8F1200845EA0C0C08FB0CA54FEAD0
:100CE400D5384FEA952C08F4FC380CF4FC6C48EA2F
:100CF4000C0CC5F344154CEA0505ADB21D8065071F
:100D04007FF53AAF36F80E9C1D8809F00F08C8EB42
:100D1400081808F103088EFB085B4FEA091A4FEA2A
:100D2400892505F070754FEAD909B3F800C00AF4B3
:100D3400704A45EA0A0AC34409F01E054FEAE878F6
:100D44001FFA8CFCC8EBAB084AEA050508FB05FA58
:100D54004FEA8C294FEA4C1509F0787905F47C4563
:100D640049EA05050CF01F0CC8F1200845EA0C0CF3
:100D740008FB0CA54FEAD5384FEA952C08F4FC384B
:100D84000CF4FC6C48EA0C0CC5F344154CEA05055C
:100D9400ADB21D8025077FF5F6AE36F80C9C1D8894
:100DA40009F00F08C8EB081808F103088EFB085B6C
:100DB4004FEA091A4FEA892505F070754FEAD909F7
:100DC400B3F800C00AF4704A45EA0A0AC34409F0B9
:100DD4001E054FEAE8781FFA8CFCC8EBAB084AEA18
:100DE400050508FB05FA4FEA8C294FEA4C1509F072
:100DF400787905F47C4549EA05050CF01F0CC8F127
:100E0400200845EA0C0C08FB0CA54FEAD5384FEA3C
:100E1400952C08F4FC380CF4FC6C48EA0C0CC5F373
:100E240044154CEA0505ADB21D80E5067FF5B2AE6A
:100E340036F80A9C1D8809F00F08C8EB081808F159
:100E440003088EFB085B4FEA091A4FEA892505F06F
:100E540070754FEAD909B3F800C00AF4704A45EA3C
:100E64000A0AC34409F01E054FEAE8781FFA8CFC0D
:100E7400C8EBAB084AEA050508FB05FA4FEA8C29DA
:100E84004FEA4C1509F0787905F47C4549EA0505E3
:100E94000CF01F0CC8F1200845EA0C0C08FB0CA54B
:100EA4004FEAD5384FEA952C08F4FC380CF4FC6C66
:100EB40048EA0C0CC5F344154CEA0505ADB21D8097
:100EC400A5067FF56EAE36F8089C1D8809F00F085C
:100ED400C8EB081808F103088EFB085B4FEA091AEF
:100EE4004FEA892505F070754FEAD909B3F800C0B7
:100EF4000AF4704A45EA0A0AC34409F01E054FEA97
:100F0400E8781FFA8CFCC8EBAB084AEA050508FB35
:100F140005FA4FEA8C294FEA4C1509F0787905F463
:100F24007C4549EA05050CF01F0CC8F1200845EA88
:100F34000C0C08FB0CA54FEAD5384FEA952C08F4A5
:100F4400FC380CF4FC6C48EA0C0CC5F344154CEA70
:100F54000505ADB21D8065067FF52AAE36F8069C00
:100F64001D8809F00F08C8EB081808F103088EFB68
:100F7400085B4FEA091A4FEA892505F070754FEAB4
:100F8400D909B3F800C00AF4704A45EA0A0AC3440E
:100F940009F01E054FEAE8781FFA8CFCC8EBAB0891
:100FA4004AEA050508FB05FA4FEA8C294FEA4C1575
:100FB40009F0787905F47C4549EA05050CF01F0C25
:100FC400C8F1200845EA0C0C08FB0CA54FEAD538FB
:100FD4004FEA952C08F4FC380CF4FC6C48EA0C0C31
:100FE400C5F344154CEA0505ADB224061D807FF512
:100FF400E6AD36F8045C1C8805F00F08C8EB081849
:1010040008F103088EFB084A4FEA852B4FEA051CBA
:101014004FEAD5090CF4704C1D880BF0707BC24468
:101024004BEA0C044FEAE87809F01E0CADB2C8EBA9
:10103400AA0844EA0C0408FB04FC4FEA85296C0165
:1010440009F0787904F47C4449EA040405F01F05A6
:101054002543C8F1200808FB05C44FEAD43CA50A7F
:101064000CF4FC3C05F4FC654CEA0505C4F344149B
:101074002C43A4B297421C8006F112067FF4A8AD5B
:10108400019B01F0070103EBC30300EB4300157858
:1010940000294FD0294E2A4F00EB410108E0338844
:1010A400338802309BB2884233804FEA550541D0E1
:1010B400EB07F4D50288338802F00F0CCCEB0C1C40
:1010C4000CF1030C87FB0C38140193024FEAD20E87
:1010D40004F47044328803F07073E04423434FEA0D
:1010E400EC7C0EF01E0492B2CCEBA80C23430CFB58
:1010F40003F44FEA822E53010EF0787E03F47C430E
:101104004EEA030302F01F021A43CCF1200C0CFB3D
:101114000243DC0B9A0A04F4FC3402F4FC6222431A
:10112400C3F34413134302309BB2884233804FEA23
:101134005505BDD103B0BDE8F08F00BF00000260CB
:101144009324499203FB0213DA08805C03F007033B
:10115400184100F00100704703FB0213DA0810B4D1
:1011640003F00703845C012101FA03F324EA030377
:10117400835410BC704700BF03FB0213DA0810B499
:1011840003F00703845C012101FA03F3234383542E
:1011940010BC704784B02DE9F04F93B01CAC84E8C8
:1011A4000F00BDF97E30BDF882401D460C94229C90
:1011B4000E932646BDF89A300594249CBDF87C1005
:1011C40001940F93259CBDF89C3008B227460994DE
:1011D40010939DF89840BDF89E308542BDF8742068
:1011E400BDF876E00A941193DDF8A0A0C0F2CF8098
:1011F4003B4603FB04F30893239BDFF8DCB107931E
:1012040013B20D930FFA8EF3029373080493C4F18F
:1012140020030B930D9B029A03FB00F3039393FBB0
:10122400F2F30C98BDF978E01BB21A1A9645B8BFD0
:101234009646BDF97A2003EB000889B2904508462A
:10124400A8BF904606916349BDF87020BDF872307E
:1012540009781FFA8EFE7244034402291FFA88F8A3
:1012640092B29BB200F0AE80032900F0A78001295E
:1012740000F092804FF020004FF0C0410880ABF89E
:1012840000200A464FF021011180ABF800304FF0E6
:1012940022010FFA88F80FFA8EF34FF0C04243454B
:1012A40011806CDC069B119A002703EB02090F9B4B
:1012B4001FFA89F903FB09F9109B7344009318E0A2
:1012C4000B9B08990AF80C2000FB0310C20B830A3D
:1012D40002F4FC3203F4FC631343C0F344101843D8
:1012E40081B201370EEB07031BB29845ABF800102F
:1012F40045DB009ABBB29A1892B24A444FEAD20C28
:101304001AF80C6002F00702BBF800107344BBF833
:10131400001046FA02F09BB2C0071BB289B2E0D4B7
:101324000298039C01F01F0500FB134304988C02F0
:1013340003FB0303059804F07874B3FBF0F348014E
:1013440000F47C402043019C2843A342C9D2E11A03
:10135400012404FA02F2079C3243A342B0D90A9B47
:10136400099A03FB01F1BDF88030B1FBF3F1CBB274
:1013740002FB03F2C3F1200300FB0320A6E7069956
:101384000E9B013189B208B28342BFF643AF13B05A
:10139400BDE8F04F04B07047C2F59F72013292B2BB
:1013A4004FF020004FF0C0410880ABF800300B46EE
:1013B4004FF021011980ABF8002068E7C3F1EF0377
:1013C4009BB2EDE7C3F59F73C2F1EF02013392B212
:1013D4009BB24FE7C40000200000026084B02DE9F6
:1013E400F04F83B00CAC84E80F00BDF83840BDF971
:1013F4003AA023B29A45BDF85A20BDF85CB0BDF8B6
:101404005E90DDF8608043DB09FB02F9159B234FF6
:101414000193A4B20BEB040292B24A44D50818F823
:10142400051002F0070201343B8841FA02F03B88C0
:10143400A4B2C0070FFA84FE9BB226D44FEA832CD1
:1014440058010CF0787C00F47C404CEA000003F076
:101454001F0318439DF85860019B4FF0010C03FBD8
:1014640006F3C6F1200606FB0036F00BB30A00F4BF
:10147400FC3003F4FC630CFA02F20343C6F3441693
:101484000A43334308F805209BB2F2453B80C0DA97
:1014940003B0BDE8F04F04B0704700BF0000026025
:1014A40084B02DE9F04F83B00CAC84E80F00BDF894
:1014B4003C40BDF93E9023B2BDF85A2099450092B4
:1014C400BDF85CA0BDF85EB0DDF8608043DB159B21
:1014D400234F0193A4B20BEB0402009B92B203FBD3
:1014E40002A2D50818F8051002F0070201343B885F
:1014F40041FA02F03B88A4B2C0070FFA84FE9BB203
:1015040026D44FEA832C58010CF0787C00F47C40FC
:101514004CEA000003F01F0318439DF85860019B38
:101524004FF0010C03FB06F3C6F1200606FB003660
:10153400F00BB30A00F4FC3003F4FC630CFA02F27F
:101544000343C6F344160A43334308F805209BB209
:10155400F1453B80BEDA03B0BDE8F04F04B07047FC
:101564000000026084B02DE9F04F95B01EAC84E811
:101574000F00BDF9862024981446BDF8A2500646F3
:1015840002902698BDF8843003900D952798BDF8F5
:10159400A4500FFA83F9074611900E959DF8A00008
:1015A400BDF8A6504C450A930C920F95BDF88220C5
:1015B400BDF87C30BDF87E1012902A9DC0F2A38045
:1015C40004461BB2099373080693C0F120031393D6
:1015D4004B4607FB04F41094259C09B20B94564C1B
:1015E40004910FFA82FB049ABDF880C0991A01FB9A
:1015F40001F1089103FB03F10FFA8CF29345079173
:1016040078DB0F9A0A991FFA8CFC02EB0109099AFC
:101614001FFA89F902FB03F305930D9B4FF0000EAB
:1016240003FB09F90E9BCDF8049003EB0C0A1FFA97
:101634008EF606EB0A02019B92B21A444FEAD208D4
:1016440015F8087002F00702238847FA02F021888F
:101654006644C307B6B289B244D4049B059836B233
:1016640003FB1600069B00FB0030029BB0FBF3F06B
:10167400039B984236D2079B06FB0639099BF31A53
:10168400089E03FB0363029E4E44B34205D8029EA8
:101694009E19B1458CBF99468146039B994521D239
:1016A40088024B0100F0787003F47C43034301F09B
:1016B4001F0119430B9B99452AD8012303FA02F20F
:1016C4003A4305F80820139B109A01FB0321CA0B27
:1016D4008B0A02F4FC3203F4FC631A43C1F3441191
:1016E400114389B20EF1010E0CEB0E031BB29B45A4
:1016F40021809CDA0A9B0C9A01339BB20A931BB299
:101704009A42BFF670AF15B0BDE8F04F04B0704711
:10171400039BBDF88820C9EB0309129B03FB09F95D
:10172400B9FBF2F2119BD2B203FB02F3C2F1200225
:1017340001FB0231CBE700BF0000026084B02DE959
:10174400F04F99B0BDF8C450BDF8BC402E4622AF4E
:10175400A64287E80F00334628BF2346A6421093CB
:10176400334638BF2346BDF8C0A00B95BDF8C8501A
:10177400119355452B4628BF534655452A4638BF35
:1017840052460F92BDF89A20AA450D92BDF89C20AE
:101794000E950A93BDF8CCB00C92C0F0938100F082
:1017A40029820B9B9C4240F23782119B03EB0B086E
:1017B4005F1C1FFA88F316930A9BBFB2CBEB03039B
:1017C4001593BE4B139326AB14930F9A0C99159B48
:1017D400C1EB020E9E45B8BF9E4612921FFA8EFEC2
:1017E400139B1A78129B022A03F10103CEEB030325
:1017F4009BB200F0CE82032A00F01983012A00F084
:101804004B82B9465946F446B846CDF854E06D4685
:101814004FF0C0425020149E41441080A8486344B5
:101824003F1B0139139789B2A0F80080013B4FF0A8
:101834005108A2F800809BB201804FF05208532156
:10184400A2F80080A0F800C011800380BDF85430D5
:101854004FF020084FF0210CA2F80080A0F800906F
:10186400A2F800C00380BDF8343022211180ADF805
:101874009A30BDF83030CAEB0E0EADF89C300FCE66
:101884000FC50FCE169FADF894E0C4EB0708129F66
:10189400ADF89280CAEB070CBDF84C70ADF896C059
:1018A400ADF890700FC5366822AB0FCB2E60FFF7F2
:1018B40059FE0E9B9A4540F2B6810B9B9C4280F0E8
:1018C400DA81119B109A5B44984613460D9996460B
:1018D4000B449845A8BF98461FFA88F31A461193FB
:1018E400764B02F101080F9A1B78571CCEEB0808BF
:1018F400BAB2022B1FFA88F8129200F03582032B39
:1019040000F05E82012B00F0D78191461046F44628
:101914005A4676466D464FF0C04350211980B04474
:10192400674908F1FF380E804A441FFA88F85126A7
:101934001E80013AA1F8008052264FF053081E8001
:1019440092B2A1F800902026A3F800804FF021095C
:101954004FF022080A801E80A1F800C0A3F800906E
:101964000880A3F80080BDF8343026AEADF89A3074
:10197400BDF83030C4EB0E0EADF89C300FCE0FC561
:101984000F9F0FCECAEB070C119FDC44C4EB070872
:10199400129FADF890E0CAEB0707ADF89280ADF85E
:1019A4009470ADF896C00FC5366822AB0FCB2E608D
:1019B400FFF7D8FD0B9B9C4280F03C81109A0E9B54
:1019C400CBEB020702F1FF3E9A45BFB21FFA8EFE2F
:1019D40080F042810F9B0C9A5B441E460A9B0A9935
:1019E40013449E42A8BF1E46B6B2344A731C1278F2
:1019F4005B1A022A9BB200F0A081032A00F08D81B9
:101A0400012A00F078818C468946B8460B976D46CA
:101A14002B4908EB0B004FF0C0424FF0500B01383C
:101A2400A2F800B06344A1F8008080B24FF05108DE
:101A3400A2F80080013B0880522010809BB2A1F8DC
:101A440000C053204FF0200C10800B80A2F800C07F
:101A5400BDF82CC021202223A1F800C01080A1F8D9
:101A640000901380BDF834300DF1980CADF89A3025
:101A7400BDF83030C4EB0E0EADF89C30BCE80F005E
:101A84000FC53F1B0A9CCAEB0606CAEB0408BCE858
:101A94000F00ADF89070ADF892E0ADF89480ADF819
:101AA40096600FC5DCF8004022AB0FCB2C60FFF72B
:101AB40059FD19B0BDE8F04F04B07047C4000020D0
:101AC40000000260B442C0F09880119A0D99109BF6
:101AD400571ACBEB03039F42B8BF1F461292BFB203
:101AE400C54B0A991A461393129B12780133CBEB18
:101AF4000101DB1B022A15919BB21FFA81FE00F043
:101B04007F81032A00F06981012A00F0E480B9464C
:101B14005946F446B846CDF85CE026AA16466D460A
:101B2400149250204FF0C04210804344B3483F1BEE
:101B3400013B16976144A0F800809BB24FF0510816
:101B4400A2F80080013903805223138089B2532301
:101B5400A0F800C013800180202321211380A0F865
:101B640000901180BDF85C10222301801380BDF821
:101B74003430CAEB0E0EADF89A30BDF83030ADF803
:101B84009C300FCE0FC50FCE0A9FADF894E0CAEB80
:101B9400070C129F0CF1FF3CC4EB0708BDF858700A
:101BA400ADF89280ADF89070ADF896C00FC5366868
:101BB40022AB0FCB2E60FFF7D5FC0B9B9C422BD99D
:101BC400119B03EB0B085F1C1FFA88F316930E9B03
:101BD400BFB29A45BFF4F9ADBDF854E00A9B0C9A24
:101BE40003EB020C0F9B9C45A8BF9C461FFA8CF389
:101BF4001293F5E5B442BFF4D4AD109B0D9ACBEB30
:101C0400030703EB0208119BBFB29845A8BF98468F
:101C14001FFA88F3129363E79C4200F01E810E9B27
:101C24009A453FF64AAE9A4500F010810B9B9C42C0
:101C3400FFF4C4AE9C4204D019B0BDE8F04F04B028
:101C440070470E9B9A45F7D9109ACBEB020702F125
:101C5400FF3EBFB21FFA8EFE0F9A0C9902EB0B06E1
:101C6400531A0A99B6B28B42B8BF0B469BB20A9379
:101C74001946BAE6D7D9119A0D99109BC1EB020EF9
:101C84009E45B8BF9E4602EB0B081FFA88F31FFA65
:101C94008EFE11931A4623E6C7F59F72CBF5A07CFE
:101CA4000132C7EB0C0C194693B215931FFA8CFC46
:101CB400F1465B46F046AAE51646CEF5A079CEF588
:101CC4009F70C8EB0909013042461FFA89F980B2B6
:101CD400B446D8461EE6C7F59F72C7F5A07C01320C
:101CE400C3EB0C0C194693B217931FFA8CFCF14604
:101CF4005B46F04611E75A46CBF5A07CC7F59F79C1
:101D0400C7EB0C0C09F101099B461FFA8CFC1FFA66
:101D140089F913460B91884679E65A46C1F1F008D1
:101D2400C1F1EF01C3EB08089B468BB20B931FFA7A
:101D340088F81346B946BC4669E6CBF1F008C1F50C
:101D4400A07CC1F59F79C7F1EF02C7EB0808C3EB8C
:101D54000C0C09F1010992B21FFA88F81FFA8CFCE5
:101D64001FFA89F90B9252E6C2F59F70CEF1F00684
:101D7400CBF5A079C2EB0909C8EB06060130CEF118
:101D8400EF0CB6B21FFA89F980B21FFA8CFC5A46DE
:101D9400C0E5CEF59F72CBF1F008CEF5A07C013200
:101DA400C7EB0808C3EB0C0CC7F1EF0992B21FFA9A
:101DB40088F81FFA8CFC15921FFA89F9594626E512
:101DC400CBF1F006B61AC2F1EF0CB6B242461FFAD6
:101DD4008CFC7046D846F1469CE5CBF1F008CEEB7E
:101DE4000808CEF1EF0919461FFA88F81FFA89F995
:101DF40017975B46BC4690E6C400002000000260D2
:101E0400CEF59F72C7F1F008CBF5A07C0132C3EB8D
:101E14000808CEEB0C0CC7F1EF0992B21FFA88F850
:101E24001FFA8CFC17921FFA89F9594675E6CEF110
:101E3400F008C3EB0808CEF1EF0919461FFA88F839
:101E44001FFA89F915975B46BC46E0E40B9B9C425C
:101E54003FF611AFFFF4F8AEECE60E9B9A45BFF4E3
:101E640009AF119B5F1C03EB0B080A9BBFB2CBEBC2
:101E7400030E1FFA88F31693034B1FFA8EFE139377
:101E840026AB1493AAE600BFC40000202DE9F04F4E
:101E94009F0297B01C01DD0803F00F030393BDF804
:101EA4008C3007F0707704F470443C4305F01E0551
:101EB4000A93BDF88060BDF89030029144EA0501B0
:101EC40001900691DDF884B0BDF888900993002E46
:101ED40000F02B81711E751C4E10931903FB03F047
:101EE4006F10B242BCB2119040F32B814FEAD17C07
:101EF4000CEB010EA2EB6E0E0EFB0EF002EB070ACA
:101F040005900AFB0AF0BA42049040F3B48105EB51
:101F1400D575A2EB650000FB00F05B0001339BB2BA
:101F2400B2420090129340F3A3814FEAD17C0CEBB0
:101F34000103A2EB63035B00013B9BB21093019B83
:101F440011199D1A029B89B2981AB84B4E001A783F
:101F5400B6B22D1B731C041B022A9BB2ADB2A4B2F1
:101F640000F07481032A00F06781012A00F0FB80ED
:101F7400A6462F464B429BB20793AD4A4FF0C0434F
:101F84005020188070191580264480B251251D8078
:101F9400B6B21080522553201D80148018801680FC
:101FA400BDF91C60202521242220564508961D8059
:101FB40017801C80A2F800E0188000F3F180B4467A
:101FC400039C1493C4EB04109A4B0330904683FB98
:101FD4000023029D0344C017C0EBA303C5F59F7201
:101FE4000A980132401ADBB20A440A90139301980A
:101FF40093B202936B1A01300C93C1F10103159053
:102004000B93600000230F900393BDF80C000A9A11
:10201400089B00EB020E099A1FFA8EFE02FB0EFECD
:102024000C9A07991044029A80B2503A92B20E92D6
:1020340000220CFB0CFC0D90019238E0049FBB4283
:102044004DD205998B42C0F0AF8011999942C0F0EE
:10205400B580012303FA02F21543139B0BF80650D3
:10206400069D8102420105FB03F501F0787102F43B
:102074007C4200F01F000A430243C3F1200303FB28
:102084000255E80BAB0A03F4FC6300F4FC3018437C
:10209400C5F34415019B284380B20BB90123019376
:1020A400611C89B20BB25345A8F8000067DC8CB2FE
:1020B40004EB090292B27244D6081BF8065002F0EF
:1020C4000702B8F8000045FA02F7B8F80000FF0765
:1020D40080B2E5D403FB03C3009FBB42AED80B041C
:1020E400DED5019B012BDBD1504B61421A78159B45
:1020F400022AA3EB04039BB28CB200F08680032A6D
:1021040076D0012A63D0149E20213180A8F80030B3
:10211400BDF8343021223280A8F8003033464FF025
:1021240022021A8002230193BAE7931903FB03F0F6
:102134000124B242314627464FF0020511903FF781
:10214400D5AE02EB070A0AFB0AF0BA42049000F388
:1021540099805B0001339BB200211293012300910B
:1021640005911093EBE6C5F5A072C5F59F75013591
:10217400D31A1FFA85FE274625469CB2FAE60B9B26
:10218400039A1946029B01EB020C013B9BB202939A
:1021940013460FFA8CFC0133D44503937FF735AF14
:1021A400584617B0BDE8F08F009A9B1A0F9A02FBAD
:1021B40003F3109AB3FBF2F3DBB251E70F9AFB1A65
:1021C40002FB03F3129AB3FBF2F3DBB248E7149E6B
:1021D4002021C3F59F7331800133BDF834109BB2C5
:1021E4002122A8F800103280A8F80030334696E780
:1021F400149E20213180BDF838102122A8F8001047
:102204003280A8F80030334689E7149EC3F1EF0307
:102214009BB220213180A8F80030BDF8083021227B
:102224003280A8F80030334679E700BFC4000020AC
:102234000000026093244992C4F1F002D31AC4F15D
:10224400EF04A7B2AE462C469DB293E6C5F1F0006A
:10225400C4F5A072C4F59F7EC01AC5F1EF07D31A66
:102264000EF1010E85B2BFB29CB21FFA8EFE81E65A
:102274000123109363E65B0001339BB212930023A6
:10228400009354E60020059041E600BF2DE9F0419B
:10229400374CBDF818502478022C53D0032C44D06A
:1022A400012C33D08E4684461E461746314C0744D3
:1022B40003FB02F30E444FF0C0424FF05008013FBD
:1022C400A2F80080BFB220804FF051085220013E96
:1022D400A2F80080B6B227804FF053081080202760
:1022E400218021202221A2F8008026801780A4F8D2
:1022F40000C01080A4F800E011802BB1204600211A
:10230400013199420580FBD1BDE8F081C0F59F7E83
:10231400C2F5A074241A0EF1010E8C4608461FFA69
:102324008EFE1646A1B21F46C0E7C3F1F004641A3C
:10233400C1F1EF011FFA81FC864601461646A0B2A0
:102344001F46B3E7C1F59F7EC2F1F006C3F5A07442
:10235400361AC0F1EF0C611A0EF1010EB0B21FFA79
:102364008CFC89B21FFA8EFE1E4617469EE700BFFC
:10237400C4000020000002602DE9F043BDF81C50A9
:10238400544FAE022C0106F0707604F470443F788A
:102394003443EE0806F01E06022F46EA040605F052
:1023A4000F0500F08180032F71D0012F60D08C467F
:1023B40080461F469646484C864402FB03F30F446E
:1023C4004FF0C0424FF050090EF1FF3EA2F80090CA
:1023D4001FFA8EFE20804FF051095220013FA2F8CF
:1023E4000090BFB2A4F800E04FF0530910804FF002
:1023F400200E218021202221A2F800902780A2F81B
:1024040000E0A4F800801080A4F800C011806BB331
:10241400C5EB05153148E91C80FB0120CA170144AE
:10242400C2EBA10106FB01F6C1EB0E0200252188D7
:102434002088013580B28102470101F0787E07F4DB
:102444007C4100F01F004EEA0101014302FB0161DF
:10245400CF0B880A07F4FC3700F4FC603843C1F35F
:102464004411014389B29D422180E0D1BDE8F0834B
:10247400C0F59F7CC2F5A074241A0CF1010C8846A7
:1024840008461FFA8CFC1746A1B29E4693E7C3F197
:10249400F004641AC1F1EF011FFA81F88446014681
:1024A4001746A0B29E4686E7C1F59F7CC2F1F007AD
:1024B400C3F5A0743F1AC0F1EF08611A0CF1010CC6
:1024C400B8B21FFA88F889B21FFA8CFC1F469646E8
:1024D40071E700BFC4000020000002609324499209
:1024E4002DE9F04F4FEA832C674E5C010CF0787CA9
:1024F40004F47C444FEA420E37784CEA040403F0B7
:102504001F0C85B01FFA8EF544EA0C040EF1010E7F
:102514008E1A801A691C02F101090094022F1FFA15
:102524008EF480B2B6B2019489B209FB09F902FBB8
:1025340002FA00F09680032F00F08880012F6ED0FD
:10254400B046844654425149A4B2029450274FF0F5
:10255400C0442780DDF808B008802F183544512086
:102564002080BFB2ADB253204FF0520E0F80A4F8BA
:1025740000E00E8020800D800FFA8BF520272126A5
:102584002220AA4203952780A1F800C02680A1F842
:102594000080208057DB8C46A846039FDDF808E0C6
:1025A40008FB08F835E0BCF80000BCF80000C7EBF5
:1025B400090180B28502440105F0787504F47C4475
:1025C40000F01F062C43B9454FEA411144EA0604C2
:1025D40015D90198B1FBF0F10098C9B201FB00F6DE
:1025E400C1F1200101FB0464E00BA10A00F4FC30FA
:1025F40001F4FC610843C4F34414204380B20EF197
:10260400010E1FFA8EFE0FFA8EF7BA42ACF80000E4
:1026140011DB07FB0787BA45C5D31846EFE7C0F5BA
:10262400A074C0F59F700130611A1FFA80F8B44697
:1026340030468EB286E70BF1010B1FFA8BFB0FFAC3
:102644008BF84245A9DA05B0BDE8F08FC6F1F00475
:10265400611AC6F1EF061FFA86FC8046064688B268
:1026640070E7C0F1F007C6F5A074C6F59F78C0F115
:10267400EF0C7E1A08F10108611AB0B21FFA8CFC43
:102684008EB21FFA88F85DE7C400002000000260E3
:102694002DE9F04F6B4D4FEA83284FEA031E4FEAB2
:1026A400420C2F780EF4704EDE081FFA8CF408F0FA
:1026B40070780CF1010C48EA0E0804F1010985B0A8
:1026C400801A891A06F01E0602F1010E03F00F0BA0
:1026D400022F1FFA8CF3009380B21FFA89F38DB294
:1026E40048EA06080EFB0EFE02FB02F900F0978092
:1026F400032F00F08980012F6FD0AA4684465342ED
:10270400514F9BB2029326184FF0C04350211980B9
:10271400388061195120B4B2522618803C801E8042
:10272400029E89B253203D801880398031B2202422
:10273400212522208A4203911C80A7F800C01D8015
:10274400A7F800A018805CDBB246CBEB0B138C46D9
:102754003E49033381FB03011944DB17C3EBA10397
:10276400DBB24FEA4B0B01930398029E0CFB0CFC6B
:1027740026E00BFB01F10098B1FBF0F1C9B29C0219
:10278400580108FB01F504F0787400F47C4003F070
:102794001F0320431843C1F1200101FB0055E90B3D
:1027A400AB0A01F4FC3103F4FC630B43C5F3441599
:1027B4002B439BB20136B6B230B282423B8018DB67
:1027C40000FB00C03B883B8886459BB2F2D981451B
:1027D400C0EB0E01CDD30199D1E7C0F5A071C0F5CE
:1027E4009F700130CB1A1FFA80FAAC4628469DB27E
:1027F40085E70AF1010A1FFA8AFA0FFA8AFC624590
:10280400B2DA05B0BDE8F08FC5F1F001CB1AC5F11D
:10281400EF051FFA85FC8246054698B26FE7C0F1C2
:10282400F006C5F5A071C5F59F7AC0F1EF0CF51A55
:102834000AF1010ACB1AA8B21FFA8CFC9DB21FFA46
:102844008AFA5CE7C40000200000026093244992E5
:102854002DE9F04F95B005900792101A594A069148
:1028640008935B1A1178BDF87C2001300992BDF8F9
:10287400802001330392BDF8842002290492BDF81C
:102884008C2080B20292BDF890209BB2BDF878A053
:102894009646BDF894B000F0FF81032900F0EE8164
:1028A40001292ED0069A059916460C46464F08442F
:1028B4004FF0C048134450250138A8F8005080B2A6
:1028C400398051255221013BA8F800509BB2388031
:1028D4005325A8F8001020203A8021212222BBF1A0
:1028E400010FA8F800503B80A8F800003C80A8F82D
:1028F40000103E80A8F8002012D1229815B0BDE83F
:10290400F08F0146059CC4F5A072101AC4F59F7699
:1029140082B218460B4606990136B6B20C46C5E794
:10292400029C0EF00F030D907046A6464FF001096D
:102934004E4605F11245C3EB031305F59205033327
:1029440005F511550E91039C85FB031504991D444F
:102954000EFB01414FEA001EC4080EF4704E04F051
:102964001E04800200F07070DB174EEA0404044376
:10297400C3EBA50303FB04F50B95229DC8082C5C4F
:1029840001F0070109FA01F12143039CC3F120037B
:102994000A93A3191093269B4FF0000C2954A3F813
:1029A40000C0631E04991193279BADF83220A3F84D
:1029B40000C08B1912934B1E13935B466246D34699
:1029C4009A4624E1C400002000000260BEF1030F17
:1029D40000F05081BEF1010F00F03D81BDF834409C
:1029E400A8F800403880BDF83800A8F80000398005
:1029F400BDF832100A9CA8F800103988B7F800E036
:102A04000FFA8CF11FFA8EFE4FEA8E294FEA4E1010
:102A140009F0787900F47C4049EA00000EF01F0EBA
:102A240040EA0E00A6460B9C59440EFB00404FEAB8
:102A3400D0394FEA902E09F4FC390EF4FC6EC0F341
:102A4400441049EA0E0E4EEA000E07981FFA8EFE55
:102A54008142A7F800E038DA0498019C00EB050EE7
:102A640010981FFA8EFE2044029C80B204FB0E00D4
:102A7400229C4FEAD00914F8094000F0070044FAF8
:102A840000FE1EF0010F0F941FD106F1010E7446D3
:102A9400F245D8BFCAEB0E04944216D0012404FABE
:102AA40000F00F9C0443019801300F90229800F825
:102AB40009400F98269C24F81600279820F8163011
:102AC4001FFA8EF6B24508BF00260598814232DD12
:102AD4000499019C4819119980B22144029C89B23D
:102AE40004FB0011229CC80814F8009001F00701AF
:102AF40049FA01FE1EF0010F1DD106F1010E7446C4
:102B0400F245D8BFCAEB0E04944214D0012404FA4F
:102B140001F1229C41EA0909019904F800902698E0
:102B2400013920F81610279921F816301FFA8EF66D
:102B3400B24508BF00261BB208995B448B4231DAC8
:102B44001299019C6818039980B22144029C89B2AD
:102B540004FB0011229CC80814F8009001F007013E
:102B640049FA01FE1EF0010F1CD106F1010E744654
:102B7400F245D8BFCAEB0E04944213D0012404FAE0
:102B840001F141EA09092919229C04F800902698C8
:102B940020F816C0279820F816101FFA8EF6B245B2
:102BA40008BF002606998B422EDD039B0199194428
:102BB4000C46139BE918A3B28CB2029901FB0434AE
:102BC4002299E308C95C04F0070441FA04F0C00741
:102BD4001AD406F1010E7046F245D8BFCAEB0E00B6
:102BE400904211D0012000FA04F40C432299013DD3
:102BF400CC54269B23F816C0279B23F816501FFAA3
:102C04008EF6B24508BF0026B2423FF476AE269B4C
:102C140033F812C0279B1FFA8CF10846019127490B
:102C240033F8123091F800E0013209999DB292B262
:102C340058446918924508BF0022BEF1020F80B2C1
:102C440089B27FF4C3AEC1F59F71C0F1EF000131C9
:102C540080B289B2C2E6C0F59F70013080B2BDF87F
:102C64003440A8F800403980BDF83810A8F80010A6
:102C74003880BDE6C1F1EF0189B2F0E7024606985B
:102C8400C0F1F001C91AC0F1EF0418461346059AC1
:102C940089B2A4B2164609E6059C069DC4F1F0016A
:102CA400C5F5A072C5F59F76091AD21A0136C4F18A
:102CB400EF0489B292B2B6B2A4B2F7E5C400002020
:102CC4002DE9F04F95B0059107935B1ABDF8781084
:102CD400151A0291BDF87C1006920A91BDF8801075
:102CE400524A0891BDF8841012780991BDF88C10ED
:102CF40001350133022A0490ADB29BB2DDF888B0ED
:102D04000191BDF890A0BDF894C000F0B082032AF0
:102D140000F09F82012A27D0059904468E46444A32
:102D240025444FF0C0460B445027013D3780ADB2D7
:102D3400148051275224013B37809BB215805327BE
:102D440034802025118021242221BCF1010F3780F9
:102D54001380358010803480A2F800E0318013D1D4
:102D6400584615B0BDE8F08F2A46C0F5A071C0F5ED
:102D74009F7E059C4D1B0EF1010EA9B21FFA8EFE1B
:102D84001D4620461346CAE71394019C1295254616
:102D94004FF0010948460396964606F149560AF053
:102DA4000F02C2EB021206F51226033206F2934614
:102DB400ADF83610089C86FB021609994FEA0A17EB
:102DC40005FB01414FEADA0507F4704705F01E05DB
:102DD4004FEA8A24164404F07074D2173D43C2EBC0
:102DE400A602254302FB05F5CC080C9501F007016A
:102DF4001BF8045009FA01F129430BF80410089C4C
:102E0400C2F120020B9222180E92269A4FF000086B
:102E1400A2F80080621E09990F92279A4346A2F8ED
:102E240000800A1810924A1E1192DAE1C4000020B0
:102E340000000260032D00F00882012D00F0F281F1
:102E4400039DBDF84890A5F80090AEF80040039D9E
:102E5400BDF84C402C80AEF800102946BDF8364031
:102E64000C80BEF80010BEF800500FFA88F1ADB225
:102E74004FEA85296C0109F0787904F47C4449EA25
:102E8400040405F01F052C430B9DA9460C9D09FB6A
:102E940004544FEAD439A50A09F4FC3905F4FC6555
:102EA400C4F3441449EA05052543029CADB2214408
:102EB400069C0091A142AEF800502CDA099C0199BD
:102EC400E5190E9CADB23419A4B201FB05444FEAD6
:102ED400D4091BF809A004F007044AFA04F5ED0725
:102EE40019D4451C2946AC45D8BFCCEB0501994201
:102EF40011D0012101FA04F444EA0A0A741826994B
:102F04000BF809A021F81040279921F81020A8B245
:102F1400844508BF0020049C0099A1422CDD099936
:102F2400CD190F99ADB274180199A4B201FB0544EF
:102F34004FEAD4091BF809A004F007044AFA04F57F
:102F4400E90719D4451C2946AC45D8BFCCEB05018B
:102F5400994211D0012101FA04F4269944EA0A0A9B
:102F6400741E0BF809A021F81040279921F81020AD
:102F7400A8B2844508BF0020029C12B22244079CD8
:102F8400A2422CDA10997D180899ADB28C190199D6
:102F9400A4B201FB05444FEAD4091BF809A004F0CC
:102FA40007044AFA04F5ED0719D4451C2946AC4533
:102FB400D8BFCCEB0501994211D0012101FA04F4E8
:102FC40044EA0A0A7C1826990BF809A021F8108013
:102FD400279921F81040A8B2844508BF0020059C19
:102FE400A2422CDD11997D180899ADB28C19019972
:102FF400A4B201FB05444FEAD4091BF809A004F06C
:1030040007044AFA04F5E90719D4451C2946AC45D6
:10301400D8BFCCEB0501994211D0012101FA04F487
:10302400269944EA0A0A0BF809A021F81080279986
:103034007C1E21F81040A8B2844508BF0020069CDD
:103044000099A14264DA07998A422EDA10997D1810
:103054000E99ADB274180199A4B201FB05444FEA6C
:10306400D4091BF8098004F0070448FA04F5ED07B5
:103074001BD4451CAA46AC45D8BFCCEB050A9A45DF
:1030840013D0012101FA04F444EA080806EB010A0A
:103094007C1826990BF8098021F810A0279921F8AB
:1030A4001040A8B2844508BF002005998A422FDD4C
:1030B40011997D180E99ADB274180199A4B201FB4F
:1030C40005444FEAD4081BF8089004F0070449FAB1
:1030D40004F5E9071CD4451CAA46AC45D8BFCCEB83
:1030E400050A9A4514D0012101FA04F406EB010AF9
:1030F400269944EA09040BF8084021F810A02799FE
:1031040007F1FF3921F81090A8B2844508BF0020C8
:10311400049C0099A14261DD07998A422EDA109934
:10312400019D7C180F99A4B2711889B205FB041192
:103134004FEAD1081BF8084001F0070144FA01F5F1
:10314400ED071BD4451CA946AC45D8BFCCEB0509FB
:10315400994513D04FF0010909FA01F10C430BF81A
:103164000840269C06F1FF3924F81090279C791C0E
:1031740024F81010A8B2844508BF002005998A429B
:103184002CDD119A019CB9180F9A89B2B21892B227
:1031940004FB0122D1081BF8014002F0070244FAA3
:1031A40002F5ED071AD4451CA846AC45D8BFCCEBB4
:1031B4000508984512D04FF0010808FA02F222439C
:1031C4000BF80120269A013E22F81060279A013F4D
:1031D40022F81070A8B2844508BF002083423FF44F
:1031E400BFAD269A2B4932F81380279A0D7802999D
:1031F40032F813201FFA88F6741801330A9997B22B
:103204009BB279189C4508BF0023022DA4B289B251
:103214007FF410AEC1F59F71C4F1EF040131A4B283
:1032240089B20DE6C4F59F740134A4B2039DBDF8C0
:103234004890A5F80090AEF80010039DBDF84C101E
:103244002980AEF80040294608E6C1F1EF0189B2B1
:10325400ECE72A4605980499C0F1F004E41AC0F199
:10326400EF001D46A4B280B213468E4657E5059E74
:10327400C0F1F004C6F5A071C6F59F7E641BC91A9F
:103284000EF1010EC0F1EF00A4B289B21FFA8EFE56
:1032940080B244E5C40000202DE9F04F8E46151A93
:1032A400CEEB030292B216468BB0BDF860100292C8
:1032B4008C020B0104F0707403F47043CA082343B6
:1032C40002F01E021A43049201F00F020592BDF8A7
:1032D4005420ADB20195BDF96C7001350892BDF86A
:1032E400582006F10109ACB2039706941FFA89F934
:1032F4000992BDF85CC0BDF964A0BDF9688057B9F6
:103304008AEAEA7288EAE873A2EBEA72A3EBE8734A
:1033140013441BB20393039C824B002CB8BF64423A
:1033240024B2202C1B78A8BF202404EBD476022BD3
:10333400C6F34F0600F0DF80032B00F0CF80012B93
:1033440000F0BD80F34605464A460699014472449E
:103354000139013A744B89B292B207920F464FF089
:10336400C0425021118018804FF0510010801F80FE
:103374004FF0530752211180A3F800E01780BDF8E5
:103384001C70202021214FF0220E1F8010801D80F0
:103394001180A3F800B0A2F800E0B9F1000F00F02A
:1033A4008B80099A02999646013211440A4699463D
:1033B400089B01990133194492B28BB2149F07926E
:1033C4000293069B002B70D00CFB0EF3089D019317
:1033D400019BB9F80010EB18DA08BA5C03F0070196
:1033E400B9F8000042FA01F111F0010180B255D19F
:1033F400002C53DD01231A4608FB036B0AFB03630D
:103404009BFBF4FB93FBF4F3CBEB0E0BEB1A1FFAD1
:103414008BFB9BB20CFB0B334FEAD30B17F80BB0AF
:1034240003F007034BFA03F3013203F0010392B2F2
:103434001944A24289B21346DEDD79B3059B039A8F
:1034440001FB03F35B0093FBF4F39BB2202B28BF37
:103454002023002AB8BFC3F12003049AB8BF9BB24B
:1034640002FB03FB8102420101F0787102F47C4209
:1034740000F01F000A430243C3F1200303FB02BB15
:103484004FEADB324FEA9B2302F4FC3203F4FC6381
:103494001343CBF3441B43EA0B0398B20135029B5D
:1034A400ADB29D42A9F8000092D10EF1010E079B26
:1034B4001FFA8EFE9E4584D10BB0BDE8F08F069AAC
:1034C400C0F5A073C0F59F7001309B1A1FFA80FBF2
:1034D4007546704649461FFA83FE37E7CEF1F0037E
:1034E400CEF1EF02C9EB030395B283468646069AF2
:1034F40098B249462AE7069FC0F1F001CEF5A072C2
:10350400CEF59F73C91BC0F1EF05C9EB020201336D
:1035140088B21FFA82FEADB21FFA83FB4A463946CF
:1035240014E700BFC4000020000002602DE9F0434E
:10353400012199B04FF4807018AC03F067F80227AA
:10354400DFF8CC8001217C2003F088F824F85C7D2E
:10355400214640464FF0030910268DF806908DF859
:10356400076002F023F84CF23372284D21462846B6
:103574001823ADF804208DF807308DF8069002F07A
:1035840015F84FF6807340462146ADF8043002F03A
:103594000DF8214628468023ADF8043002F006F8E1
:1035A400214628464FF40063ADF8043001F0FEFFD5
:1035B4004FF0080E00240DEB0E034FF0805C4FF427
:1035C400004201254FF4805109A8CDF820C0CDF860
:1035D4002CE012910E921693179304970C96039471
:1035E40005940694079409940A940D940F941094E6
:1035F4001194139414941594029503F0BDF929467B
:10360400204603F009FD19B0BDE8F0830014014021
:103614000018014030B50B4C83B0032210234FF443
:103624000055204601A98DF806208DF80730ADF825
:10363400045001F0BBFF2946204602F027FB03B0EB
:1036440030BD00BF0014014010B5194C02211948C7
:1036540002F01CFB184923680122A1FB0313D909BA
:103664000B4609B1013BFDD1013AF9D102211148C0
:1036740002F03CFB104923680A22A1FB0313D90979
:103684000B4609B1013BFDD1013AF9D102210948A8
:1036940002F0FCFA236808493222A1FB0331C9096C
:1036A4000B4609B1013BFDD1013AF9D110BD00BF70
:1036B4003800002000180140F1197605F8B5FFF72D
:1036C400C3FF49F225324FF0C04100206A4B088005
:1036D4001B889BB2934204D040F20341674800F038
:1036E400E3FC41F2300640F2331743F20105624B2A
:1036F4004FF0C0420121118061484FF480740221CF
:103704001C8011804FF4E06400211C800170417022
:103714000324042014801E80072410800C2610200B
:10372400198014801F8016801D8010805548112731
:1037340012261325198017801C8016801980158085
:10374400198051490368C822A1FB031323FA04F129
:103754000B4609B1013BFDD1013AF9D140F22721D1
:1037640041F29045444B4FF0C0421026112416807C
:103774001D8014801980444903683222A1FB03137D
:10378400D9090B4609B1013BFDD1013AF9D13A4BB4
:103794004FF0C0411C2212240C801A803A4903685D
:1037A4003222A1FB0313D9090B4609B1013BFDD118
:1037B400013AF9D1304B4FF0C04113240C804FF43F
:1037C400D057292625252B241F800E801D800C8090
:1037D4001A802D4903683222A1FB0331C9090B4623
:1037E40009B1013BFDD1013AF9D140F2065540F24D
:1037F400072040F2063740F2027641F2046440F2B8
:10380400077E4FF0C04130230B801B4B1A803122BE
:103814000A8032221D800A804FF482721A80352277
:103824000A80362218800A800F2037221880382513
:103834000A804FF4817039221F800D803C27188044
:103844003D250A8060204FF42742A3F800E00F8052
:103854001E8061270D8001261C809025088010247D
:103864001A8092204FF4C0620F801E800D801C804D
:1038740008801A80F8BD00BF000002607CDD0408E7
:10388400C400002038000020F119760540F23112FE
:10389400284B2948F0B44FF0C04107240C801A800B
:1038A400264903680A22A1FB031323FA04F10B46F9
:1038B40009B1013BFDD1013AF9D11E4B4FF0C04192
:1038C40007244FF498720C801A801C4903680A225A
:1038D400A1FB031323FA04F10B4609B1013BFDD10B
:1038E400013AF9D1134B4FF0C041072510240D8044
:1038F40080271A8011260C80122513241F800E8025
:103904001A800D801A800C801A800C490368C82222
:10391400A1FB0331C9090B4609B1013BFDD1013AB1
:10392400F9D1044B4FF0C041102082220880F0BC32
:103934001A8070470000026038000020F1197605F3
:10394400384BF0B44FF0C04210258024112015806C
:103954001C801080344800210725122713260124D7
:103964001980178019801680198015802F491C80B2
:103974000368C822A1FB031323FA05F10B4609B11E
:10398400013BFDD1013AF9D140F2272141F29045A2
:10399400244B4FF0C0421026112416801D80148041
:1039A4001980224903683222A1FB0313D9090B466B
:1039B40009B1013BFDD1013AF9D11A4B4FF0C04195
:1039C4001C2212240C801A80184903683222A1FB9D
:1039D4000313D9090B4609B1013BFDD1013AF9D1D1
:1039E400104B4FF0C042252113264FF4D055292403
:1039F40016801D801480198003680C493222A1FBB3
:103A04000331C9090B4609B1013BFDD1013AF9D192
:103A140040F23312F0BC034B4FF0C0410720088042
:103A24001A8070470000026038000020F119760502
:103A3400704700BFFEE700BFFEE700BFFEE700BF20
:103A4400FEE700BF704700BF704700BF704700BF6C
:103A5400074A084811680131116013682021A0FB4E
:103A640003235B06044801D402F040B902F00EB906
:103A7400D8010020D34D6210000C01402DE9F84319
:103A84001E21D2231A460846FCF74EFC43F2507618
:103A94006FF0590808FB08F51E24A8F1110708F275
:103AA400011904E00134FCF79FFCF02C15D0A4F1BB
:103AB400780303FB0353B342F4DCBC42F2DB08F1AA
:103AC40078034C452344EDDCF02BEBDD0C21002086
:103AD4000134FCF7BFFCF02CE9D108F10108B8F17E
:103AE400780FD7D1BDE8F883024B1868013040083D
:103AF400704700BFD8010020044B054A1B681068BA
:103B040001335B081360181A704700BFD801002006
:103B1400E00000200A4B10B41A680A4C01322368F2
:103B24005208D11A636808BF01210B445B08226064
:103B340003F5FA605A006360B0FBF2F010BC704702
:103B4400D8010020E0000020092870B50A46044688
:103B540011D825491046254B0025A3FB0463DB0837
:103B640003EB8303A4EB430351F823301B88138036
:103B740020F8025F70BD1D4DA5FB0035ED08092D31
:103B840012D819491046194B0026A3FB05E3DB089C
:103B940003EB8303A5EB430351F823301B8820F880
:103BA400023B56800246D5E7114EA6FB0036760945
:103BB400092E06D90F48A0FB04308009FFF7C4FF83
:103BC40002461046094B0849A3FB06E3DB0803EB56
:103BD4008303A6EB430351F823600023368820F8BF
:103BE400026B53800246CDE700000020CDCCCCCC44
:103BF4001F85EB51D34D6210754B2DE9F04F1A68B8
:103C0400744D01322B685208D11A6B6808BF012128
:103C14000B445B082A605C0003F5FA62B2FBF4F41F
:103C240000FB04F4092C8FB06B6021D809AE314637
:103C3400694F6A4B0022A3FB0403DB0803EB8303F5
:103C4400A4EB430357F82300202405880E230D809A
:103C54004A803046194604920192009203930294DA
:103C64000F234FF6FF7200F0F5FE0FB0BDE8F08FA2
:103C74005A4DA5FB0435ED08092D13D809AE32467B
:103C8400554F1146554B0020A3FB05E3DB0803EB1E
:103C94008303A5EB430357F823301B8821F8023B29
:103CA4005080C6E74E4BA3FB04384FEA5818B8F1CE
:103CB400090F13D809AE3146474F0A46474BA3FBB9
:103CC4000803DB0803EB8303A8EB430357F8230043
:103CD4000023008822F8020B4B80D2E7414BA3FB60
:103CE40004394FEA9919B9F1090F13D809AE3246CC
:103CF400394F1146394BA3FB0903DB0803EB83035C
:103D0400A9EB430357F823000023008821F8020B92
:103D14005380D2E7344BA3FB043A4FEA5A3ABAF140
:103D2400090F13D809AE31462B4F0A462B4BA3FB80
:103D34000A03DB0803EB8303AAEB430357F82300CE
:103D44000023008822F8020B4B80D2E7274A63093C
:103D5400A2FB033B4FEADB1BBBF1090F13D809AEEF
:103D640032461D4F11461D4BA3FB0B03DB0803EB2F
:103D74008303ABEB430357F823000023008821F8A7
:103D8400020B5380D1E71A4BA3FB04239B0C092B92
:103D940013D809AE3046024610490F4FA1FB03E188
:103DA400C90801EB8101A3EB410157F8211000235D
:103DB400098822F8021B4380D4E70E480793A0FB2E
:103DC400043009AE3146800DFFF7BEFE079BE2E7E3
:103DD400D8010020E000002000000020CDCCCCCC95
:103DE4001F85EB51D34D62105917B7D1C55A7C0AC0
:103DF40083DE1B436BCA5F6B2DE9F04F824691B0A3
:103E0400431EDFF88492DFF884B20793954B1A6857
:103E1400D9F8003001325208D11AD9F8043008BF59
:103E240001210B445B08C9F800205C0003F5FA6229
:103E3400B2FBF4F40AFB04F4092CC9F804306DD87D
:103E44000BAAABFB0413DB0803EB83038649A4EB47
:103E5400430351F823100E200988002320241180E5
:103E640053800146049301930093039002940F231B
:103E74004FF6FF720BA800F0EDFDBAF1000FC5D0AC
:103E8400079F4FF0C8084FF6FF7500240C261E2329
:103E940019461846B42200950294019600F03AF9A6
:103EA4001E2211461046B42302948DE8600000F0EF
:103EB40031F9322108463323C82202948DE8600088
:103EC40000F028F932210846C823332202948DE8F1
:103ED400600000F01FF932210846E623C82202944C
:103EE4008DE8600000F016F9142306220492019371
:103EF40000934FF6FE7248F68E0318215B48CDF806
:103F04000C80CDF8088000F0A5FDF8B22146FCF73E
:103F14009BF93B46013F002BB5D177E7ABFB04355A
:103F2400ED08092D11D80BA90A46ABFB0503DB08E4
:103F340003EB83034C48A5EB430350F82300002311
:103F4400008822F8020B4B807BE7494BA3FB043625
:103F54007609092E11D80BAA1146ABFB0603DB0820
:103F640003EB83034048A6EB430350F823000023EC
:103F7400008821F8020B5380D6E73E4BA3FB04379D
:103F8400BF09092F11D80BA90A46ABFB0703DB08AD
:103F940003EB83033448A7EB430350F823000023C7
:103FA400008822F8020B4B80D6E7334BA3FB042393
:103FB4005B0B092B11D80BA80146ABFB03E2D2081B
:103FC40002EB8202A3EB4202274B53F82220002388
:103FD400128821F8022B4380D6E728496209A1FB05
:103FE40002284FEAD818B8F1090F14D80BA98C4647
:103FF4006046ABFB0812D20802EB82021A49A8EB16
:10400400420251F822E00022BEF800E020F802EB60
:10401400ACF80220D0E71A4AA2FB0412920C092A37
:1040240013D80BA88446ABFB021E4FEADE0E0EEB40
:104034008E0EA2EB4E0E0C4A52F82EE00022BEF871
:1040440000E02CF802EB4280D2E708930D4B0BA959
:10405400A3FB0430800D0992FFF776FD089B099AB3
:10406400E0E700BFD801002000000020F8DB0408CE
:104074001F85EB51D34D62105917B7D1C55A7C0A2D
:1040840083DE1B436BCA5F6BE0000020CDCCCCCC3D
:1040940082B00190019B2BB1019B013B0193019BD9
:1040A400002BF9D102B07047FEE700BFF8B501FB61
:1040B40000F10D4C0746206BC1F3CF05164608B13D
:1040C40003F09CFE284603F091FE6785206335B11A
:1040D4000023C654013398B28542206BF9D80023DB
:1040E400E385A385F8BD00BFE8000020014B988557
:1040F400D9857047E8000020044B10B4DA8D9C8DFC
:10410400114420449885D98510BC7047E8000020EC
:10411400704700BF2DE9F04F95B09846BDF87C502C
:104124009DF8803006460F469146BDF878E013931B
:10413400002D00F001816A1E6B1C02FB02F203FBDE
:1041440003F30232023392109B1011936D089B1AF1
:1041540010929BB26A1C0F921293C7EB08039BB296
:104164000FFA83FC0CFB0CF2C6EB090080B20FFAC9
:1041740080FA0AFB0A22B04C8AEAEA71A261A080A2
:10418400E38026806780A1EBEA71002B00F0DD80DC
:104194008CEAEC730F9AA3EBEC7301EB030B02FBB9
:1041A4000BFB9BFBFCFB8AB21FFA8BFBA4F812B03F
:1041B400002800F0C7800F98194400FB01F191FB1F
:1041C400FAF19BB289B20EF00F00DFF870B2C0EBC7
:1041D40000100330A1828BFB00510144C017C0EBD7
:1041E400A1004FEA8E2B4FEA0E1101F470410BF03F
:1041F400707B4BEA010B10994FEADE0EE1611199D5
:104204000EF01E0E2162BDF848104BEA0E05218205
:1042140013990AEAEA7B0CEAEC7E2AEAEA7A2CEAA7
:10422400EC7CC90784F828006562A4F808B0A4F8F7
:104234000AA0A4F80CE0A4F80EC07F4840F19E80C8
:104244004E45304628BF48464745394628BF414673
:10425400013301329BB292B2FCF766F8B4F906302E
:10426400DFF8D4E1002B00F0D280BEF904300EF167
:10427400100AD346EC46002B6FD0BBE80F00ACE825
:104284000F00BBE80F00ACE80F00DBF800509EE81D
:104294000F00CCF80050FCF77DFFD346EE46BBE898
:1042A4000F000F9D09960D95CDF83080CDF82C9018
:1042B4000A97AEE80F00BBE80F00AEE80F00DBF88A
:1042C400005094E80F00CEF80050FDF737FABAE832
:1042D4000F00EE460F9D0B960D950C97CDF8288098
:1042E400CDF82490AEE80F00A688A28DE588E38D72
:1042F40032442B44A285E385BAE80F00AEE80F00F0
:10430400DBF8003076426D42A4F80090A4F80280F5
:10431400A680E580CEF8003094E80F00FDF70EFA91
:10432400A08DA288E18DE3880244206B0B44A28512
:10433400E38515B0BDE8F08F012312931095119316
:104344000F930AE799B20B463DE71FFA81FB8CEA0B
:10435400EC735A46A3EBEC7328E7BBE80F00ACE818
:104364000F00BBE80F00ACE80F00DBF800509EE83C
:104374000F00CCF80050FDF793F88EE70F99006B0F
:104384004900013189B20A4401EB030A1FFA82FB96
:104394001FFA8AFA0BFB0AFACAF3CF0A08B103F030
:1043A4002DFD504603F022FDA4F82AB02063BAF193
:1043B400000F0AD0002319460F9D00E0206BC15462
:1043C40001339AB25245F9D30F954E45304628BF72
:1043D40048464745394628BF4146B4F90430B4F944
:1043E400065083EAE372A2EBE37285EAE573A3EB7A
:1043F400E5730F9DC0EB060EAE44A4F82CE0C1EBB0
:10440400070EAE44A4F82EE092B29BB220E70EF160
:10441400100AD346EC46BBE80F00ACE80F00BBE83B
:104424000F00ACE80F00DBF800509EE80F00CCF85A
:104434000050FCF7D3FF30E7E800002093244992B2
:104444002DE9F04FA1B0BDF8A8401F939DF8AC3002
:104454001E941B901C9113921D93002C00F0C1819B
:1044640002460F464FEA540C0CF1010310930CF171
:10447400020C1399B2F800800129B7F800E040F269
:10448400F38113467046754644464646A1F1020937
:104494001FFA89F909F1010902EB490933F8021FEE
:1044A40037F8022F8E4228BF0E468C4238BF0C4686
:1044B400954228BF1546904238BF10464B45EDD172
:1044C4001D9BDA0740F19581A94CA28DE38DC8EBC1
:1044D4000208CEEB030E1FFA88F314931FFA8EF32F
:1044E4001593139B012B40F249811E9D1F9F2A4661
:1044F4001B9B0132119307F00F03C3EB03139D4E73
:1045040002FB02F20333691E86FB035601FB01F131
:10451400023292101E441692DB17C3EBA60302313B
:10452400169E8910BD023801DBB2179105F0707533
:1045340000F47040FA08711A284302F01E021A931C
:104544008BB2189340EA020319930123DDF870B08B
:104554001293B8E080EAE073109AA3EBE073CE18EC
:1045640002FB06F696FBF0F6B6B28AB26682002D1E
:1045740000F0E0805D1810999BB201FB05F595FBF6
:10458400FEF5ADB2A58200EAE07620EAE075179860
:104594000EEAEE71E0611698BA452062BDF860003B
:1045A400218120821998514660629DF8680028BFD5
:1045B40039460133C14502F101029BB22EEAEE7E77
:1045C40084F8280092B2484628BF4046A4F80AE07E
:1045D400A681E581FBF7A8FEB4F90630002B00F0B4
:1045E400B880634B6E46B3F90430634D002B00F082
:1045F400A4800FCD0FC60FCD0FC6A5F130032D68D3
:104604000FCB3560FCF7C6FDEE46109B5A4DCDF836
:1046140024900D930C97CDF82C80CDF828A00FCDC5
:10462400AEE80F000FCD2E46AEE80F0056F820C9B5
:1046340094E80F000F96119E0BF1020B02361196AF
:10464400CEF800C0FDF77AF8EE460F9E0FCE0F9617
:10465400109ECDF830A00D96CDF82C900A97CDF889
:104664002480AEE80F00B4F806C0E38DB4F80490DB
:104674006344E3850F9BA28D1E464A44A2850FCE58
:10468400AEE80F002B68CCF1000CC9F10009A4F8C6
:1046940000806780A4F80490A4F806C0CEF8003027
:1046A40094E80F00FDF74AF8E18DE388129D0B446E
:1046B400A08DA2880135E385139BADB20244AB42C1
:1046C4001295A2855CD0BBF80020119915980B882F
:1046D40002441498E2850344A385BBF800A0BBF808
:1046E4000270B1F80090CAEB07039BB2B1F80280E4
:1046F40018B200FB00F2C9EB0805ADB20FFA85FE53
:104704000EFB0E228EEAEE71E380A4F80090A4F86A
:1047140002A0A580A261A1EBEE71002B7FF41AAF79
:104724008EB280EAE0733246A3EBE0736682002D1A
:104734007FF420AF9DB22B4624E70FCD0FC60FCDDB
:104744000FC6A5F130032D680FCB3560FCF7A8FE2A
:104754005AE76E46084D0FCD0FC60FCD0FC6A5F113
:1047640030032D680FCB3560FCF738FE4CE700BFF3
:10477400E800002093244992F800002001231393B9
:104784001D9B9B071FD5139B1C9903F10040013807
:1047940031F810201B9D159E35F810303244149EBC
:1047A400E2851D9A3344A38542F001021E9E0B88C4
:1047B40002922A88019631F8101035F810001F9DD6
:1047C4000095FFF7A7FC1B9B149A1B88206B1A44C7
:1047D4001C9BA2851B88159A1A44E28521B0BDE86A
:1047E400F08F012310931E934FF0020C02460F46E4
:1047F4003FE6109B04EB0C07F61AED1A0CEB0008CD
:10480400B6B2ADB2BF1BC5EB0808BFB21FFA88F839
:1048140007FB08F8174CC8F3CF08206B08B103F066
:10482400EDFA404603F0E2FA67852063B8F1000F21
:1048340008D00023194600E0206BC15401339AB21A
:104844004245F9D300231B99E385A3850A881C9864
:10485400921B92B2A28503885B1B9BB2E385B1F8DD
:104864000080B0F800E032E670467546444646469D
:1048740026E600BFE80000202DE9F04F89B09DF83E
:104884004C409B46E307804689461746BDF848A03E
:1048940013D51D4B9A8DDE8D186B5C8D02920190A1
:1048A40004940396CDF800A05B463A464946404638
:1048B400FDF7ECFA09B0BDE8F08F561C06EB5A067A
:1048C400B6B274000134A4B204FB04F30E4DC3F376
:1048D400CF03286B18B1079303F090FA079B18468F
:1048E400079303F083FA079B6C85286343B1002484
:1048F400214601550134A2B29342286BF9D86C8D3C
:104904003246AE85EE85C9E7E80000202DE9F8437C
:1049140004468788C6884588984608463B4611461B
:104924003246B4F80090FBF7FFFC032D0FD0042DA2
:104934000BD1B8F1FF0F1ED0424607FB06F104EB82
:104944004900BDE8F843FBF769BFBDE8F883B8F157
:10495400FF0F08D0424607FB06F104EB4900BDE80F
:10496400F843FBF71BBF07FB06F104EB4900BDE866
:10497400F843FBF7C9BD07FB06F104EB4900BDE8AA
:10498400F843FBF7CDBD00BF2DE9F8430446868804
:10499400C588478899460846334611462A46B4F8DE
:1049A4000080FBF7C1FC032F0CD0042F08D14A462A
:1049B40006FB05F104EB4800BDE8F843FBF7BEBF76
:1049C400BDE8F8834A4606FB05F104EB4800BDE860
:1049D400F843FBF76FBF00BF2DE9F8430446868810
:1049E400C588478899460846334611462A46B4F88E
:1049F4000080FBF799FC032F0CD0042F08D14A4602
:104A040006FB05F104EB4800BDE8F843FCF78EB85B
:104A1400BDE8F8834A4606FB05F104EB4800BDE80F
:104A2400F843FBF7CDBF00BF38B504461D46084622
:104A340063781146A278FBF777FCA1786378207835
:104A440003FB01F12A462044C1F34F01BDE838407D
:104A5400FBF72EBE2DE9F04F9E468FB0BDF86440A3
:104A6400A54F0C94BDF86C40BDF860B0BDF86890DB
:104A74009DF870600B9401249F4B651C53F82550DE
:104A84008D4206D037F82440002CF5D10FB0BDE894
:104A9400F08FA31C05929A0073461B077546CDF848
:104AA40018E00D918046039200F0EC80720740F10B
:104AB400F980B8F80050002D00F001810B9B0D9A8D
:104AC4009342E3DB059BDDF830A023F0080383F475
:104AD4007F431946BDF8343000241A46099306F082
:104AE4000403DBB2049306F0030308920293264600
:104AF4002B46524681F0F0010791C2EB0A0292B2B2
:104B04000A92B9F1000F7CD0039A03F18043013B70
:104B140002EB8303784AD458784B1C44A27891451D
:104B2400A8BF002530DAB5E0029BBFB2002B3ED10E
:104B3400384692B263785146FBF7F6FB6378A17866
:104B4400207803FB01F10136C1F34F01059AB6B297
:104B54002044FBF7ADFDA37838F816201D440399D3
:104B640002F18043013B01EB830308EB4607ADB23E
:104B7400002A5DD0A94544D95F4AD4585F4B1C44F0
:104B8400A278AB184B452BDC049B0BEB0507002BE1
:104B9400CAD006990BEB0507BFB26378384600917B
:104BA4005146FDF7E9FB029BA278002BC0D0BDF86B
:104BB400081092B20BEB01002844514480B289B230
:104BC4006378FBF7B1FBA1786378207803FB01F1EC
:104BD400079A2044C1F34F01FBF76AFDA278A7E7C7
:104BE400049B73B10699C5EB09020BEB05006378CE
:104BF40092B2009180B25146FDF7BEFB3B88002B78
:104C040068D0089A0D9913460B440B998B423FF7D1
:104C14003DAF099838F81630824402441FFA8AFAE4
:104C240092B213B108920C9A67E71D46089B0A9347
:104C34000A9B099A13449BB20893049B002B3FF4EC
:104C440025AF089A0C9B05EB0B0013449EB2099BFD
:104C5400C5EB0902F11A89B280B292B2002C37D0A6
:104C64006378069C0094FDF787FB089A0B9B3146FA
:104C74009B1A58464A469BB218940FB0BDE8F04FB1
:104C8400FDF77ABBB8F8005006F0FB06002D7FF460
:104C940015AFFBE6049B08EB46070025002BA1D1CA
:104CA4001D46ABE700950B9B4A460C995846FDF709
:104CB40063FBB8F80050002D7FF400AFE6E60C9BD0
:104CC4000895591A1E4689B24A4658460B9BC8E7AE
:104CD4000B9BC6E7049B002B3FF4D8AE089A0C9BB1
:104CE4000BEB050013449EB2099BC5EB0902F11AB4
:104CF40089B280B292B2B3E774D7040840DA0208EA
:104D04002DE9F047ADF58D5D82B00DF58E55083572
:104D14002E880DF58E550C35B5F800800DF58E55A1
:104D240010350DF58E54B5F900700DF58E5514350A
:104D34000DF58F5C1834B5F900E0BCF800900DF562
:104D44008E550DF58F5C24681C350CF1040C2D88F0
:104D54009CF800C0002C3FD01CF0100F1DD11FFA8E
:104D64008EFEBFB20DF6E80CCDF80CE002970DF103
:104D7400280E4FF48C67CDF81890059504948DE8AF
:104D84004001CDF824C0CDF820E00797FDF760FD81
:104D94000DF58D5D02B0BDE8F0871FFA8EFC1FFA99
:104DA40087FA0DF6E80ECDF80CC00AAF4FF48C6C00
:104DB400CDF808A0CDF81890059504948DE840012D
:104DC400CDF824E00897CDF81CC0FDF779FF0DF568
:104DD4008D5D02B0BDE8F087014D2C6B6D8DBBE796
:104DE400E80000202DE9F043079EBDF92040BDF9FD
:104DF4002450BDF82870BDF82CE0BDF930C0BDF9D1
:104E04003480BDF938908EB1ADB2A4B2099508943E
:104E1400CDF83890CDF83480CDF830C0CDF82CE002
:104E24000A970796BDE8F043FEF736BA014F3E6B8A
:104E34007F8DE9E7E80000203C4B30B418683C491A
:104E440040F0010018605D6882B02940596019681B
:104E5400002021F0847121F48031196019684FF425
:104E64001F0421F48021196059681A4621F4FE01B7
:104E740059609C6000900190196841F48031196078
:104E840003E0009BB3F5A06F09D0136803F400336B
:104E94000193009B01330093019B002BF1D0234B22
:104EA4001B6813F4003318BF01230193019B012BEA
:104EB40006D0204B4FF000629A6002B030BC7047BD
:104EC4001D4A1A4B1068194640F010001060106813
:104ED40020F003001060106840F0020010605A686F
:104EE4005A605A685A605A6842F480625A605A6832
:104EF40022F47C125A605A6842F464125A601A68A6
:104F040042F080721A600B68084A9B01FBD5114677
:104F1400536823F003035360536843F00203536060
:104F24004B6803F00C03082BFAD1C2E700100240CF
:104F34000000FFF800ED00E000200240114A536831
:104F440003F00C03082B0ED153685168C3F3834359
:104F5400C90303F1020310D5526892030DD40A4A1F
:104F640002FB03F300E0084B064A08495268C2F307
:104F740003128A5CD3400B617047054A02FB03F3BA
:104F8400F2E700BF0010024000127A00280000205F
:104F940000093D00F0B47E4C7E4F7F4D7F4E27606C
:104FA4007F4B8049804A8148814C2E60A7F5404759
:104FB400804D196010602760A6F530467E4B7F4A0D
:104FC4007F4C804F2E6001F5744100F500607E4DEA
:104FD40019601060276006F5C4367C4B7C4A7D4C12
:104FE4007D4F00F5C6302E60A1F5305108307B4D61
:104FF4001960106027603036794B7A4A7A4C2E60FB
:10500400A1F56F7150305037784D196010602760EA
:105014005036774B774A784C2E6001F5717100F564
:10502400717007F57177754D19601060276006F58A
:105034007176734B734A744C744FA0F580302E60B4
:1050440050311C38724D734E1960106027607249DC
:10505400724B7348734A744F2E604FF020450D60B5
:1050640018601760714C724E7249734B7348744ADE
:10507400744FA03526600D60734C1860734E176032
:105084007349744D744B754A00F5805007F5805789
:1050940026600D6018601760714C7249724B734A38
:1050A40006F58056A5F5A055A0F54440A7F544475C
:1050B40026600D60186017606D4C6E496E4D6F4B25
:1050C4006F48704AA6F5704607F5C05726600D6014
:1050D400186017606C4C6D496D4D6E4B6E486F4A8D
:1050E40006F5F03607F5404726600D601860176036
:1050F4006B4C6C496C4B6D486D4AA6F5EC3605F566
:10510400A055A7F5806726600D6018601760694E8A
:10511400694C6A496A486B4B6B4AA5F560554FF078
:1051240080473760256008601A60684E684C69499A
:10513400694B07F5805705F5805500F5963002F563
:105144009A323760256008601A60644E644C654981
:10515400654B07F59A3705F59A3500F58060A2F599
:105164007C42376025600860604E1A60604C61497B
:10517400614BA7F57C47A5F57C45A0F56840A2F5F1
:10518400C0523760256008601A60F0BC704700BFE9
:10519400940200200024014038020020002801402D
:1051A40020020020003C0140EC020020006C004082
:1051B40080020020C402002050020020B802002017
:1051C40084020020002004E0CC0200201802002009
:1051D40064020020E80200201C0002403402002087
:1051E40060020020A00200201402002030020020EF
:1051F4000802002058020020A8020020E402002037
:10520400D4020020DC0100200C0200200020024017
:105214009802002000F8FF1F04020020540200201E
:10522400040100A0B4020020600000A0DC02002001
:10523400800000A0EC0100208C0200200008014046
:10524400E4010020000C01406C0200200010014029
:1052540068020020001401409C0200201C0200206F
:105264003C02002088020020F801002010020020E7
:10527400D0020020B002002000E100E0E0010020A4
:1052840000ED00E04C020020D80200205C02002067
:10529400002800404802002000800140A4020020B1
:1052A400F001002078020020E002002010E000E07D
:1052B4007C020020C0020020FC0100202C020020FF
:1052C4000008004090020020000C004074020020FE
:1052D400BC02002028020020AC0200207002002042
:1052E40040020020C8020020E8010020240200201F
:1052F4000002002044020020F4010020EFF30880A3
:10530400004670474FF0FF30704700BF08B502F009
:1053140067FD0C2303604FF0FF3008BD08B502F0B1
:105324005FFD0B2303604FF0FF3008BD4FF40053C3
:105334004B600020704700BF01207047022801D84D
:105344000120704708B502F04BFD092303600020DB
:1053540008BD00BF08B502F043FD162303604FF0FB
:10536400FF3008BD08B502F03BFD1F2303604FF07A
:10537400FF3008BD00207047124910B50A68034683
:10538400E2B1FFF7BBFF1344834202D80B6010461F
:1053940010BD0D4A0D49144601F1190013885B062E
:1053A400FCD511F8013B8142A380F7D102F018FD2E
:1053B4000C234FF0FF320360104610BD0448024630
:1053C4000860DEE71C010020003801408CDD040881
:1053D400F402002070B582B0A8B90190019B9A42F2
:1053E4000FDD0C4C0D46264623889B06FCD5B08861
:1053F400019B05F8010B01330193019B681A934249
:10540400F2DB02B070BD02F0EBFC092303604FF045
:10541400FF30F6E70038014003490B88024A9B0637
:10542400FBD59088C0B27047003801404FF4005358
:105434004B600020704700BF4FF0FF30704700BF43
:1054440008B502F0CDFC022303604FF0FF3008BD25
:1054540008B502F0C5FC0A2303604FF0FF3008BD15
:10546400012838B517D002280ED1002A0ADD114CC4
:105474008D18204623885B06FCD511F8013BA94210
:105484008380F7D1104638BD02F0AAFC09230360DB
:105494004FF0FF3038BD002AF4DD064C8D1820464D
:1054A40023885B06FCD511F8013BA9428380F7D120
:1054B400104638BD0038014008B5344B984227D017
:1054C40003F5806398422DD003F5806398423FD062
:1054D40003F58063984245D003F5806398420DD06C
:1054E40003F58063984247D003F58063984223D044
:1054F400BDE808406F212648FEF7D6BD01214020B3
:1055040001F0FCF8BDE808400021402001F0F6B8A5
:105514000121042001F0F2F8BDE808400021042034
:1055240001F0ECB80121082001F0E8F8BDE80840DA
:105534000021082001F0E2B801214FF4807001F04D
:10554400DDF8BDE8084000214FF4807001F0D6B8C2
:105554000121102001F0D2F8BDE8084000211020FC
:1055640001F0CCB80121202001F0C8F8BDE80840C2
:105574000021202001F0C2B80121802001F0BEF8F2
:10558400BDE808400021802001F0B8B800080140BF
:10559400A8DD040808B50121084601F0AFF8BDE80C
:1055A40008400021012001F0A9B800BFC14B70B52B
:1055B400984204460E461BD003F58063984217D0E8
:1055C40003F58063984213D003F5806398420FD0AB
:1055D40003F5806398420BD003F58063984207D0AB
:1055E40003F58063984203D0B221B348FEF75CFD13
:1055F400F27812F0FB0F40D0282A3ED0482A3CD043
:1056040002F0F303102B00F04381B321AA48FEF704
:105614004BFD33881BB9B421A748FEF745FDF37849
:1056240003F00F05DB0640F11E82B278531E022BF5
:1056340000F2398133882A4313F0FF0F25D1FF2B61
:1056440040D903F4807080B2616800283BD19D0585
:1056540000F1C880580500F1AD801D0500F1B68049
:10566400D80479D49D0400F18380580400F18C801F
:105674001B0400F19580616070BD3388002BCAD093
:1056840002F00F0213F0FF0FD9D013F001002168CC
:1056940040F0B480980700F111815D0700F1538157
:1056A400180700F14581DD0600F13681980600F106
:1056B40027815D0600F11881180600F10B81FF2B8C
:1056C4002160BED870BDF57821F00F01282D41EA84
:1056D400020100F04381482DB9D19D052061B9D55F
:1056E40021F0F00141EA02114FF4007020615805E5
:1056F400B3D521F4706141EA02214FF480601D05A5
:105704002061ADD521F4704141EA02314FF40060CB
:105714002061D804A6D521F4702141EA02414FF456
:1057240080509D042061A0D521F4700141EA02510A
:105734004FF40050206158049AD521F0706141EA79
:1057440002614FF480401D04206194D562F31F71FF
:105754004FF4004323618EE7F07821F47021282868
:1057640041EA024100F0208148287FF47BAFD6E76C
:10577400F07821F47001282841EA025100F01E81DA
:1057840048287FF472AFD3E7F07821F070612828BD
:1057940041EA026100F01C8148287FF469AFD0E738
:1057A400F37862F31F71282B00F01A81482B7FF4E1
:1057B40062AFCDE7F07821F47061282841EA022134
:1057C40000F0DE8048287FF448AF96E7F07821F4B3
:1057D4007041282841EA023100F0DC8048287FF437
:1057E4003FAF93E7F07821F0F001282841EA021155
:1057F40000F0BC8048287FF42DAF75E7F57821F0E0
:105804000F01282D41EA020100F0EE80482D7FF4BB
:1058140041AF206198077FF540AF21F0F00141EAE4
:10582400021102205D0720617FF53AAF21F4706117
:1058340041EA02210420206118077FF534AF21F4E6
:10584400704141EA02310820DD0620617FF52EAF68
:1058540021F4702141EA02411020206198067FF56D
:1058640028AF21F4700141EA025120205D06206135
:105874007FF522AF21F0706141EA0261402020618E
:1058840018067FF51CAF62F31F718020206116E7B4
:10589400338802F00F05002B3FF4BDAEB278531EDF
:1058A400022B7FF6C7AEBB210348FEF7FDFBB2789F
:1058B400C0E600BF00080140A8DD0408F07821F02C
:1058C400F001282841EA021100F0968048287FF46C
:1058D400E4AEA6E7F07862F31F71282800F0C080D8
:1058E40048287FF4ECAED0E7F07821F070612828E6
:1058F40041EA026100F0AD8048287FF4DDAEBDE7E7
:10590400F07821F47001282841EA025100F09880CF
:1059140048287FF4CEAEA8E7F07821F47021282837
:1059240041EA024100F0838048287FF4BFAE93E748
:10593400F07821F47041282841EA02316ED04828D9
:105944007FF4B1AE7FE7F07821F47061282841EA52
:1059540002215AD048287FF4A3AE6BE76061980512
:105964007FF578AE21F0F00141EA02114FF40070A6
:105974005D0560617FF571AE21F4706141EA022139
:105984004FF48060606118057FF56AAE21F47041C0
:1059940041EA02314FF40060DD0460617FF562AEDC
:1059A40021F4702141EA02414FF48050606198046F
:1059B4007FF55BAE21F4700141EA02514FF40050CF
:1059C4005D0460617FF554AE21F0706141EA0261CB
:1059D4004FF48040606118047FF54DAE62F31F718F
:1059E4004FF40043636146E69D0760617FF555AE61
:1059F40021F0F00141EA02110220606158077FF5AD
:105A04004FAE21F4706141EA022104201D07606158
:105A14007FF549AE21F4704141EA0231082060610A
:105A2400D8067FF543AE21F4702141EA02411020EB
:105A34009D0660617FF53DAE21F4700141EA02519B
:105A44002020606158067FF537AE21F0706141EA8D
:105A5400026140201D0660617FF531AE62F31F7163
:105A6400802060612BE62A4633880BE64FF6FF71EF
:105A74000222042301808270C370704738B5294B19
:105A8400044698420D461CD003F58063984218D012
:105A940003F58063984214D003F58063984210D0D4
:105AA40003F5806398420CD003F58063984208D0D4
:105AB40003F58063984204D04FF48F711A48FEF7BF
:105AC400F3FA6B1E9BB21F2B07D9402D0AD1A36892
