:020000040800F2
:1000000000000120D5620008CD280008D128000892
:10001000D5280008D9280008DD28000800000000C5
:10002000000000000000000000000000E1280008BF
:10003000E528000800000000E9280008ED28000875
:100040002563000825630008256300082563000870
:100050002563000825630008256300082563000860
:100060002563000825630008256300082563000850
:100070002563000825630008256300082563000840
:100080002563000825630008256300082563000830
:100090002563000825630008256300082563000820
:1000A0002563000825630008256300082563000810
:1000B0002563000825630008256300082563000800
:1000C00025630008256300082563000825630008F0
:1000D00025630008256300082563000825630008E0
:1000E00025630008256300082563000825630008D0
:1000F00025630008256300082563000825630008C0
:1001000025630008256300082563000825630008AF
:10011000256300082563000825630008256300089F
:10012000256300082563000825630008256300088F
:1001300000000000000000000000000000000000BF
:1001400000000000000000000000000000000000AF
:10015000000000000000000000000000000000009F
:10016000000000000000000000000000000000008F
:10017000000000000000000000000000000000007F
:10018000000000000000000000000000000000006F
:10019000000000000000000000000000000000005F
:1001A000000000000000000000000000000000004F
:1001B000000000000000000000000000000000003F
:1001C000000000000000000000000000000000002F
:1001D000000000000000000000000000000000001F
:0401E0005FF8E0F1F3
:1001E400134B002B08BF114B9D46A3F5803A002109
:1001F4008B460F461148124A121A05F0B1FC0D4BFA
:10020400002B00D098470C4B002B00D098470020BF
:10021400002104000D000B4805F04EFC05F07AFCAB
:100224002000290005F06CFD05F04CFC00000800DE
:100234000000000000000000000000009C000020FE
:10024400D8020020F15A000830B583B002466C464B
:100254000B1C0E4918BF01230868496802F0030209
:1002640003C40B4D02FA03F103244FF0C0400DF117
:10027400080E2A706B707144048011F8083C054A1A
:10028400A34043F48053138003B030BD906500084D
:100294009C0000200000026070B4064A4FF0C04386
:1002A4002026212522241E8010801D8011801C8080
:1002B40070BC70470000026030B4194B1B78032BEC
:1002C40013D8DFE803F02B250218C1F59F71C0F1A4
:1002D400EF000131134B80B289B24FF0C0422025A8
:1002E400212415801880148019804FF0C0432222E5
:1002F4001A8030BC7047C1F1EF010A4B89B24FF04C
:10030400C042202521241580198014801880ECE730
:10031400C0F59F700130034B80B2F0E7014BDCE77E
:100324009C00002000000260F0B52D4C2478022CC3
:1003340043D0032C38D0012C2CD00E461C46074643
:100344001346014622463046264D0B444FF0C04426
:100354004FF0500E0244013BA4F800E09BB2298008
:100364004FF0510E5221013AA4F800E092B22B80D2
:100374004FF0530C21804FF0200E2121222328809E
:10038400A4F800C02A80A4F800E02F8021802E80E9
:100394002380F0BDC0F59F76C2F5A074201A013603
:1003A40080B2B6B20F46CFE7C3F1F004641AC1F1CC
:1003B400EF018FB20646A1B2C6E71D46C1F59F768E
:1003C400C3F5A073C2F1F004591A241AC0F1EF075F
:1003D400013688B21346B6B2A1B2BFB22A46B3E719
:1003E4009C00002000000260024B1A88188880B22A
:1003F4001880704700000260014B1880704700BFEE
:100404000000026030B4124C00FB01F02388238802
:10041400C1F110019BB21D015A0005F4702502F4CC
:1004240070622A43C3F34303134301FB0300020A2C
:10043400430922F4FF6222F0070203F4FC6313432E
:10044400C0F3C400184380B2208030BC704700BFA2
:100454000000026030B4114C00FB01F023882388B3
:10046400C1F120019BB29D025A0105F0787502F496
:100474007C422A4303F01F03134301FB0300C20B16
:10048400830A02F4FC3203F4FC631343C0F3441004
:10049400184380B2208030BC704700BF0000026067
:1004A400E12911D0FF290AD00F2904D0400190FB83
:1004B400F1F0C0B27047064B1844007A7047044B01
:1004C400184490F8FC007047014B1844007E7047B4
:1004D400906500084A1E49B105490B880B88013A0A
:1004E4009BB220F8023B0B80531CF6D1704700BF2F
:1004F400000002604B1E31B1034930F8022B013B6E
:100504000A805A1CF9D170470000026000293BD0D0
:10051400F0B54C1E1D4D1E490B8830F8023B0A886D
:1005240003F00F0792B24FEA822E56012F440EF0C9
:10053400787E3F7A06F47C464EEA060602F01F02F5
:100544003243C7F1200E0EFB02FE4FEA832C1E013C
:10055400DA080CF0707C06F470464CEA060602F0E9
:100564001E02324307FB02E3DE0B9A0A06F4FC3652
:1005740002F4FC623243C3F3441313439BB2013CC1
:100584000B80631CC8D1F0BD704700BF90650008A4
:10059400000002602DE9F0439502540105F07875DE
:1005A40004F47C442C4302F01F022243002967D048
:1005B4004F1EBFB2334E344D0744013810F801CFFB
:1005C40029880CF00F0803FB08F886FB0814B5F81B
:1005D40000E04FEAE878C8EB24141FFA8EFE02FB11
:1005E40004F94FEA8E214FEA4E1801F0787108F4AD
:1005F4007C4841EA08080EF01F0E48EA0E0EC4F1CA
:10060400200101FB0E914FEA1C1CCC0B4FEA9128F0
:1006140003FB0CFC04F4FC3E08F4FC64C1F3441139
:100624004EEA04040C43A4B286FB0C1E2C802988D9
:100634002C884FEAEC7CCCEB2E1EA4B2A1024FEA2C
:10064400441C02FB0EF801F078710CF47C4C41EA76
:100654000C0104F01F040C43CEF1200101FB0481C2
:100664004FEAD13E8C0A0EF4FC3E04F4FC644EEADC
:100674000404C1F34411214389B2874229809DD1E6
:10068400BDE8F083BF3CB622000002602DE9F043D0
:100694001301940204F0707403F47043D5082343E7
:1006A40005F01E051D4300295FD04F1EBFB2304E1A
:1006B400304C074402F00F02013810F801EF238890
:1006C4000EF00F0C02FB0C6C21889CF8188089B288
:1006D4008B024FEA411C05FB08F903F078730CF414
:1006E4007C4C43EA0C0C01F01F014CEA0101C8F1F7
:1006F400200303FB01934FEAD33C990A0CF4FC3C1E
:1007040001F4FC614CEA01014FEA1E1EC3F34413D9
:1007140002FB0E6E0B439BB22380238821889EF834
:1007240018C089B28B024FEA411E05FB0CF803F096
:1007340078730EF47C4E43EA0E0E01F01F014EEA6C
:100744000101CCF1200303FB01834FEAD33E990A54
:100754000EF4FC3E01F4FC614EEA0101C3F34413C0
:100764000B439BB287422380A7D1BDE8F08300BF2F
:1007740090650008000002601D4BF0B51A4492F821
:10078400FC6099B31B4D4C1EC6F120072B882988A9
:1007940030F8022B89B24FEA812E4B010EF0787E9D
:1007A40003F47C434EEA030301F01F01194307FBE2
:1007B40001F14FEA822E53010EF0787E03F47C435C
:1007C4004EEA030302F01F021A4306FB0213D90B7D
:1007D4009A0A01F4FC3102F4FC620A43C3F34413A1
:1007E40013439BB2013C2B80631CCFD1F0BD00BFEF
:1007F4009065000800000260002943D02DE9F04113
:10080400214E224D4C1E30F8023B298803F00F077D
:1008140002FB07F72988A6FB07E789B24FEA812C78
:100824004FEA411E0CF0787C0EF47C4E3F094CEAF2
:100834000E0E01F01F014EEA0101C7F1200C0CFB62
:1008440001FC4FEA83284FEA031ED90808F07078A8
:100854000EF4704E48EA0E0301F01E01194307FB23
:1008640001C3DF0B990A07F4FC3701F4FC61394337
:10087400C3F344130B439BB2013C2B80631CC2D1D2
:10088400BDE8F081704700BFBF3CB62200000260A3
:1008940000293BD0F0B51E4F1E4E114430F8025BC8
:1008A40012F801EB4FEA852C6B0134880CF0787C4C
:1008B400BE44348803F47C434CEA030305F01F056B
:1008C4009EF8FCC0A4B21D430CFB05F5A3024FEA3D
:1008D400441E03F078730EF47C4E43EA0E0E04F0CB
:1008E4001F044EEA0404CCF1200303FB0453DD0B84
:1008F4009C0A05F4FC3504F4FC642C43C3F3441350
:1009040023439BB28A423380C8D1F0BD704700BFF5
:10091400906500080000026000293AD0F0B51D4E31
:100924001D4D11442B882C8812F801EBA4B2A702A8
:100934006301B6449EF8FCC007F0787703F47C4367
:100944003B4304F01F0730F8024B1F43CCF1200354
:1009540003FB07F74FEA041EA30203F070730EF4BF
:10096400704EE40843EA0E0E04F01E044EEA04043A
:100974000CFB0473DF0B9C0A07F4FC3704F4FC64DF
:100984003C43C3F3441323439BB28A422B80C9D113
:10099400F0BD70479065000800000260E1B170B4DA
:1009A4004C1E00210B460D4E0EE0E9B2DD075BBF85
:1009B400358835880588ADB2013C3580651C00F169
:1009C40002004FEA530306D04D1E0029EDD11378DF
:1009D40007210132EAE770BC704700BF00000260E3
:1009E40000295BD02DE9F04700254E1E2C462C4FE4
:1009F400DFF8B0E00DE0E107DDB23B8813D43B88BB
:100A04009BB23B80013E731C00F102004FEA540488
:100A140042D06B1E002DEED114780725E10702F1B8
:100A240001023B88EBD50388398803F00F0C89B2A7
:100A34004FEA81294FEA4118F4449CF808C009F0B0
:100A4400787908F47C4849EA080801F01F0148EA6B
:100A54000101CCF1200808FB01F84FEA832A4FEA90
:100A64000319D9080AF0707A09F470494AEA0903AB
:100A740001F01E0119430CFB01834FEAD33C990A90
:100A84000CF4FC3C01F4FC614CEA0101C3F3441393
:100A94000B439BB23B80B5E7BDE8F087704700BFCE
:100AA400000002609065000803FB0213DA08805C12
:100AB40003F00703184100F00100704703FB021321
:100AC400DA0810B403F00703845C012101FA03F38C
:100AD40024EA0303835410BC704700BF03FB0213D2
:100AE400DA0810B403F00703845C012101FA03F36C
:100AF4002343835410BC704784B02DE9F04F8FB06A
:100B040018AC84E80F00BDF86A30BDF868101BB259
:100B14001D460B931C9BDFF890E11E4604931E9B1D
:100B240008B205931F9B85421F4608939DF88030A9
:100B3400AEF81C101C460993BDF88230BDF866203F
:100B44000C93BDF88630BDF884900D93DDF888B021
:100B5400C0F2A4803B4603FB04F307931D9B0FFAEA
:100B640082FA06931FFA89F3029373080393C4F17C
:100B740020030A935346DA469B46DEF82080DFF8CA
:100B84002CC1BDF8642010B28345AEF8242079DB73
:100B9400BDF834300093BDF83030019322E00A9A56
:100BA40007990AF8093004FB02184FEAD8324FEAD1
:100BB400982303F4FC6302F4FC3141EA0302C8F312
:100BC40044131A4392B2AEF82620BEF82430ACF88F
:100BD40000205A1C92B210B2334B8345AEF8242045
:100BE400998B4FDB029B0CB21A44009B92B21944BE
:100BF4008BB2019901FB03234FEAD3091AF8096068
:100C0400BCF8002003F00703BCF8002046FA03F107
:100C140092B2C907AEF82620D7D4BDF96070BDF9E9
:100C2400621004FB07F700FB11710398950201FBA6
:100C3400010104985401B1FBF0F1059F05F07875AA
:100C440004F47C442C43B94202F01F0544EA050431
:100C5400BBD2012000FA03F306987A1A814243EAD0
:100C640006039CD9099BBDF86C8003FB02F2B2FB1E
:100C7400F8F2089BD2B203FB02F3C2F1200804FB92
:100C8400083892E7013189B20B980BB29842AEF85A
:100C94001C10054ABFF675AFC2F820800FB0BDE83E
:100CA400F04F04B0704700BF9C00002000000260B9
:100CB40084B02DE9F04F95B01EAC84E80F00BDF868
:100CC4008230249D1BB21E469DF898200295259DD6
:100CD400BDF88010109512921546BDF89A202298FE
:100CE4006B4F0C930D920BB2BDF89E209E42039065
:100CF4003985BDF87E80BDF878C0BDF87A40BDF86E
:100D04009C000E92DDF8A0B0C0F2A980109EDFF81E
:100D140084E1324602FB05F21192FA6A0FFA88F86E
:100D24000A92239A0B9222B2049282B203980F92EF
:100D34000FFA8CF2069242080592C5F12002139232
:100D44000498BDF87C20181A00FB00F003FB03F3A1
:100D540016B2B0453A860990089371DBBDF838A005
:100D6400BDF83490DDF83CC00CEB02030AEB010043
:100D74009AB283B209FB0323DD081BF80540BEF8D1
:100D84000020BEF8000003F00702019244FA02F2C8
:100D940080B2D307788648D40AB20699049B01FB33
:100DA40002F203FB1622059B02FB0232039BB2FBF9
:100DB400F3F2029B9A4238D2089B711A06FB06335F
:100DC400099E079301FB01611E46039B1E44079B7A
:100DD400B14288BF1A46029B9A4226D2860241013A
:100DE4000B9B06F0787601F47C41314300F01F0040
:100DF4009A4240EA010037D8019A012393402343E1
:100E04000BF80530119A139B00FB032319460A9330
:100E1400C80B8B0A03F4FC6300F4FC3242EA0300BF
:100E2400C1F34413184380B278863A8E184B0132CA
:100E340092B216B2AEF80000B0453A86198D93DA34
:100E4400013189B20C980BB298423985104ABFF629
:100E540077AF0A9BD362089B5363099B936315B0D6
:100E6400BDE8F04F04B07047029B9A1A129B03FB33
:100E740002F2BDF88430B2FBF3F3109ADBB202FB4A
:100E840003F2C3F1200300FB03230A931946BFE7CF
:100E94009C0000200000026084B02DE9F04F8DB06A
:100EA400BDF88460BDF88C8016AC4645B34628BFB7
:100EB400C346464584E80F00334638BF4346BDF871
:100EC4008850BDF89070A946BD4228BFB946BD42BE
:100ED40009932B4638BF3B46BD420893BDF8944066
:100EE400C0F0518100F04C81464500F2DA8000F0F8
:100EF400D580BD4267D864D0464507D304D00DB031
:100F0400BDE8F04F04B07047BD42F8D9D54B0898FE
:100F14001F78C4EB0B02631CC6EB0B01034492B2B3
:100F2400401B961B0139C9EB03032044C5EB09059B
:100F3400022FADF85C60ADF85E109BB2ADF86200B4
:100F4400ADF8605000F0D981032F00F0C881012F63
:100F540000F0B681494610466D464FF0C046502712
:100F640037801444C04F4B444FF0510E013C3A803B
:100F7400A4B2A6F800E053224FF0520E013B3C808D
:100F84009BB2A6F800E02024A7F800904FF0210EB1
:100F9400328022223B80348038801AACA6F800E0EC
:100FA400398032800FCC0FC594E8070085E807002C
:100FB40016AB0FCBFFF77CFE0DB0BDE8F04F04B0CD
:100FC4007047464598D9089AA64B0999521B92B284
:100FD4001878631C0B44C6EB010E511C2244ADF877
:100FE4006220089ACBEB0303A644ADF860100132EB
:100FF400C6EB0B0102289BB2ADF85EE0ADF85C10C5
:1010040092B200F08C81032800F04A81012800F09C
:101014009D812046DC460992CDF828B04FF0C041AE
:101024004FF0500AA1F800A0DFF83CA26344AAF8EC
:1010340000C04FF0510CEE461044013B9BB2013806
:10104400A1F800C080B2AAF800304FF0520C53232C
:10105400A1F800C0AAF800200B80AAF80000BDF88F
:1010640028004FF0200C2122A1F800C0AAF80000AB
:101074000A80BDF824202223AAF800200DF1680C70
:101084000B80BCE80F00AEE80F009CE807008EE878
:10109400070016AB0FCBFFF70BFE2DE7BD42BFF4E5
:1010A40028AF099BDFF8BCE1991B089889B2631C3F
:1010B40003449EF8000001F1010E2144ADF85E10D6
:1010C4000899C4EB0902ADF85CE0C5EB010E09997F
:1010D40092B2C9EB0303C5EB020C01310228ADF84F
:1010E40060C09BB2ADF862E089B200F03F81032892
:1010F40000F0C980012800F05081A4460A920B91A7
:101104004FF0C0404FF0500AA0F800A0DFF858A1FB
:101114008C44AAF800104FF051010CF1FF3C0180FF
:101124001FFA8CFC5221AAF800C013440180AAF8CB
:1011340000204FF05302EE46013B9BB20280AAF816
:101144000030BDF82C304FF0200CA0F800C0AAF8F5
:101154000030BDF828302121222201800DF1680CD5
:10116400AAF800300280BCE80F00AEE80F009CE84B
:1011740007008EE8070016AB0FCBFFF799FDB8E622
:101184004645BFF4B1AE0998DFF8D8E0C4EB0B02D2
:10119400631C0344C4EB0901C5EB090092B29EF839
:1011A40000C000F1FF3AC6EB020E89B20998ADF80F
:1011B4005CE0C5EB010ECBEB0303ADF860E0BCF1E2
:1011C400020FC6EB000E9BB2ADF862A0ADF85EE074
:1011D40000F0F380BCF1030F48D0BCF1010F00F024
:1011E4000481A4460A910B924FF0C0404FF0500A7C
:1011F400A0F800A0DFF870A01344AAF800204FF074
:101204005102013B02809BB25222AAF800308C4466
:101214000280AAF800104FF02001EE460CF1FF3CCA
:101224001FFA8CFC53230380AAF800C00180BDF888
:101234002C102122AAF800100280BDF828202223B5
:10124400AAF800200DF1680C0380BCE80F00AEE89A
:101254000F009CE807008EE8070016AB0FCBFFF7E2
:1012640027FD41E69C00002000000260C4F1F0006C
:10127400401AC1F1EF019C468BB20B930A921146BE
:10128400234682B2B0E7C2F1F000C2F1EF02C01A05
:1012940092B20B929C460A460A91234681B22FE7EA
:1012A400C4F1F00CC2EB0C0CC2F1EF02184693B27D
:1012B4000A931FFA8CFCCDF824B023465A46ADE6B7
:1012C4002646C2F59F71C4F5A074A51A01311C46C7
:1012D40048464A4689B233461FFA85F93CE6264613
:1012E400C9F1F005ED1AC9F1EF091FFA89F01C469E
:1012F400114691463346AAB22EE6C9F59F71C4F150
:10130400F005C9F5A076C2F1EF00AD1AC3EB0609EA
:101314000131AAB280B21FFA89F989B21CE6C4F578
:10132400A071C2F59F7ECBF1F00C8A1A0EF1010E6A
:10133400CBF1EF011FFA8EF0C3EB0C0C89B20990CC
:101344001FFA8CFC92B20A91204667E6CBF59F7E89
:10135400CBF5A0710EF1010EC91A18461FFA8EF3CF
:101364000A92944609938AB2234657E6C4F1F000E0
:10137400C2F59F7E401AC1F1EF0AC2F5A07C0EF1BE
:10138400010E81B21FFA8AF0C3EB0C020B901FFA14
:101394008EF092B20A90A446B2E6C1F59F7EC4F5DF
:1013A400A0700EF1010E401A9C461FFA8EF30A93A8
:1013B4000B921146234682B2A2E6C4F5A070C1F591
:1013C4009F7EC2F1EF0AC2F1F00C411A0EF1010E38
:1013D4001FFA8AF0C3EB0C0C0B901FFA8EF01FFA65
:1013E4008CF289B20A90A446FEE6C2F5A070C2F55A
:1013F4009F720132C01A92B20A929C460A460B911D
:10140400234681B2F0E600BF2DE9F04F91B09E0271
:101414001D01DF0803F00F0CBDF9743005F47045AD
:1014240006F070762E4307F01E070093BDF868405F
:10143400BDF878300D4646EA07010791BDF970B052
:101444000993002C00F0E780214602EB010A0AFB15
:101454000AF6944204F101030D9680F0E880511AD3
:101464000AF1010601FB01F706FB06F69A4206970C
:10147400039640F3308104EB020901391FFA89F91C
:1014840001FB01F14FEA490301339BB201910E9331
:10149400131B5B00013B9BB20C939C49AB1A09786C
:1014A400801A021B1B1B022992B29BB200F0FF8020
:1014B400032900F0F080012900F0CF809E461746F2
:1014C4000E994FF0C040502501390580904E89B2E5
:1014D400C9F1000554182DB20895A4B232805122E6
:1014E40002801944348052225324028089B233800A
:1014F4002022048021232224AA45318002803780BF
:101504000380A6F800E00480C0F28180814B009A39
:1015140063440F934FEA4C030B93002304932B462D
:10152400C9F10108C9EB0202DDF86CC00A92C9EBEB
:101534000B091FFA88F803FB03F3BDF810100A988F
:10154400029301EB000E099B1FFA8EFE03FB0EFEB5
:10155400089A05910025A8B200EB09039BB27344D5
:10156400D9081CF8014003F00703009144FA03FB77
:10157400318831881BF0010F89B239D1029F02FBF7
:101584000272019FBA4233D9039FBA4230D2019FFB
:10159400C7EB020B069F97426DD8039FC2EB070B64
:1015A400012707FA03F30D9F234397426BD3009A55
:1015B4000CF802300F9B1B7A079F8C024A0107FB31
:1015C40003F704F0787402F47C4201F01F01224313
:1015D4000A43C3F1200303FB0277F90BBB0A01F4AE
:1015E400FC3103F4FC631943C7F34417394389B24C
:1015F400404402B29245318005F10105ABDA059B06
:10160400049A43441BB201329A45049293DA1B981C
:1016140011B0BDE8F08F01210C4602EB010A0AFB70
:101624000AF694424FF002030D96FFF418AF0AF144
:10163400010606FB06F604EB02099A4203961FFA1A
:1016440089F954DC4FEA490301339BB200210E931C
:101654000123019106910C931FE70E98C2F5A07126
:10166400C2F59F72091A01321FFA82FE1F461A46FA
:101674008BB2014625E70B9B0C9A03FB0BF3B3FBE0
:10168400F2F3DBB298E70B9B0E9A03FB0BF3B3FB6D
:10169400F2F3DBB290E70E98C3F1F001091AC3F13B
:1016A400EF039FB2964613468AB2014609E7C3F593
:1016B400A071C3F59F7E0E9BC2F1F000C01AC2F167
:1016C400EF07CB1A0EF1010E82B2BFB29BB21FFA22
:1016D4008EFE0E99F5E604EB02091FFA89F94FEA2A
:1016E400490301339BB20E9300230193D0E6511AB0
:1016F4004FEA49030139013301FB01F19BB20E9317
:1017040000230693012301910C93C6E69C0000205C
:1017140000000260906500082DE9F0433D4CBDF8DF
:101724001C502478022C5DD0032C4ED0012C3DD0CB
:101734008C4680461F469646374C86444FF0C0463A
:101744000F444FF050090EF1FF3EA6F800901FFA27
:101754008EFE20804FF051095220013FA6F80090E0
:10176400BFB2A4F800E04FF0530930804FF0200ED0
:10177400218021202221A6F800902780A6F800E0ED
:10178400A4F800803080A4F800C031800026002B2B
:101794003DD0002122B1013188B282422580FAD89D
:1017A4000136B1B28B42F4D8BDE8F083C0F59F7C1A
:1017B400C2F5A074241A0CF1010C884608461FFADD
:1017C4008CFC1746A1B29E46B6E7C3F1F004641A36
:1017D400C1F1EF011FFA81F8844601461746A0B211
:1017E4009E46A9E7C1F59F7CC2F1F006C3F5A0743B
:1017F400C0F1EF08361A611A0CF1010CB0B21FFAED
:1018040088F889B21FFA8CFC1F46964694E7BDE817
:10181400F08300BF9C000020000002602DE9F04727
:10182400BDF820C0574D4FEA8C284FEA0C1408F03D
:10183400707804F470442D7848EA04044FEADC0814
:1018440008F01E08022D44EA08080CF00F0C00F002
:101854008280032D72D0012D61D08E4681461E46B2
:101864001746494D07444FF0C0440E444FF0500A08
:10187400013FA4F800A0BFB228804FF0510A5220C3
:10188400013EA4F800A0B6B22F804FF0530A208086
:101894002027298021202221A4F800A02E8027803F
:1018A400A5F800902080A5F800E02180002B67D0E7
:1018B40036494FF0000E8C444AB39CF8086000246B
:1018C400C6F1200708FB06F629882888013480B26F
:1018D40081024FEA401901F0787A09F47C4100F062
:1018E4001F004AEA0101014307FB01614FEAD139B4
:1018F400880A09F4FC3900F4FC6049EA0000C1F3E9
:1019040044110143A0B289B282422980DCD80EF18D
:10191400010E1FFA8EF18B42CED8BDE8F087C0F5D8
:101924009F7EC2F5A074241A0EF1010E8946084662
:101934001FFA8EFE1646A1B21F4692E7C3F1F004C9
:10194400641AC1F1EF011FFA81F986460146164671
:10195400A0B21F4685E7C1F59F7EC2F1F005C3F52D
:10196400A074C0F1EF092D1A611A0EF1010EA8B28C
:101974001FFA89F989B21FFA8EFE1E46174670E7D0
:10198400BDE8F0879C00002000000260906500081C
:101994002DE9F04F4FEA832C674E5C010CF0787C04
:1019A40004F47C444FEA420E37784CEA040403F012
:1019B4001F0C85B01FFA8EF544EA0C040EF1010EDB
:1019C4008E1A801A691C02F101090094022F1FFA71
:1019D4008EF480B2B6B2019489B209FB09F902FB14
:1019E40002FA00F09680032F00F08880012F6ED059
:1019F400B046844654425149A4B2029450274FF051
:101A0400C0442780DDF808B008802F1835445120E1
:101A14002080BFB2ADB253204FF0520E0F80A4F815
:101A240000E00E8020800D800FFA8BF52027212600
:101A34002220AA4203952780A1F800C02680A1F89D
:101A44000080208057DB8C46A846039FDDF808E021
:101A540008FB08F835E0BCF80000BCF80000C7EB50
:101A6400090180B28502440105F0787504F47C44D0
:101A740000F01F062C43B9454FEA411144EA06041D
:101A840015D90198B1FBF0F10098C9B201FB00F639
:101A9400C1F1200101FB0464E00BA10A00F4FC3055
:101AA40001F4FC610843C4F34414204380B20EF1F2
:101AB400010E1FFA8EFE0FFA8EF7BA42ACF8000040
:101AC40011DB07FB0787BA45C5D31846EFE7C0F516
:101AD400A074C0F59F700130611A1FFA80F8B446F3
:101AE40030468EB286E70BF1010B1FFA8BFB0FFA1F
:101AF4008BF84245A9DA05B0BDE8F08FC6F1F004D1
:101B0400611AC6F1EF061FFA86FC8046064688B2C3
:101B140070E7C0F1F007C6F5A074C6F59F78C0F170
:101B2400EF0C7E1A08F10108611AB0B21FFA8CFC9E
:101B34008EB21FFA88F85DE79C0000200000026066
:101B44002DE9F04F694D4FEA83284FEA031E4FEA0F
:101B5400420C2F780EF4704EDE081FFA8CF4891AAA
:101B640008F070780CF1010C48EA0E0804F1010940
:101B740085B0801A06F01E0602F1010E8DB2022F06
:101B84001FFA8CF1009180B21FFA89F148EA060825
:101B940003F00F030EFB0EFE02FB02F900F092802D
:101BA400032F00F08480012F6AD0AB468246514255
:101BB4004F4F89B2029150264FF0C0410E803880B9
:101BC40026182C4451200880B6B2A4B253204FF0FA
:101BD400520C3E80A1F800C03D8008803C80BDF9D5
:101BE4000840202621252220A24203940E80A7F833
:101BF40000A00D80A7F800B0088055DBA4463D493D
:101C04004FEA430BDDF808A0CB1801930398029E1A
:101C14000CFB0CFC22E00199097A9C02580108FB98
:101C240001F504F0787400F47C4003F01F032043B2
:101C34001843C1F1200101FB0055E90BAB0A01F483
:101C4400FC3103F4FC630B43C5F344152B439BB2F3
:101C54000136B6B230B282423B801DDB00FB00C0CD
:101C64003B883B8886459BB2F2D98145C0EB0E0187
:101C7400D1D20BFB01F10098B1FBF0F1C9B2CCE772
:101C8400C0F5A076C0F59F700130711A1FFA80FB71
:101C9400AA4628468DB28AE70AF1010A1FFA8AFA8F
:101CA4000FFA8AFC6245B1DA05B0BDE8F08FC5F1E0
:101CB400F006711AC5F1EF051FFA85FA8346054649
:101CC40088B274E7C0F1F007C5F5A076C5F59F7B2F
:101CD400C0F1EF0A7D1A0BF1010B711AA8B21FFAB9
:101CE4008AFA8DB21FFA8BFB61E700BF9C000020CB
:101CF40000000260906500082DE9F04F1C4695B085
:101D0400BDF890800993624B0591611A08F00F04A5
:101D14001C44BDF8783004900892101A5D4A03936D
:101D2400BDF87C3012780A93BDF88C300130013153
:101D3400022A80B289B294F80890BDF980E0BDF916
:101D440084A00293BDF894B000F0D781032A00F078
:101D5400C681012A2ED0059B049A1F4614464E4E76
:101D640010444FF0C04C194450250138ACF80050D1
:101D740080B23280512552220139ACF8005089B228
:101D840030805325ACF800202020338021222223E8
:101D9400BBF1010FACF800503180ACF80000348086
:101DA400ACF800203780ACF8003012D1229815B07E
:101DB400BDE8F08F0246049CC4F5A073181AC4F55C
:101DC4009F7783B208461146059A0137BFB214467D
:101DD400C5E7ADF836301FFA8EF30E9018461FFA99
:101DE4008AF31F460793029B069003FB07004FEA02
:101DF400081E4FEAD8030EF4704E0F9203F01E0330
:101E0400229AC7084EEA030312F807E009FB03F21B
:101E1400012100F007000C9201FA00F0229A40EA36
:101E24000E00D055C9F1200206980B92269A002480
:101E3400148042181092279A0D461480421E119263
:101E44002246079F01947B1812937B1E1393269BB3
:101E540033F812E0279B1FFA8EF133F812800D4BF2
:101E640001911F78039B013219440A9B1FFA88F4DD
:101E740092B2E31889B2934508BF00229BB2032FA4
:101E84001DD8DFE817F0120027010B00190100BF6D
:101E9400906500089C00002000000260C3F59F7359
:101EA400C1F1EF01013389B29BB2BDF83800ACF83F
:101EB40000003180BDF83C10ACF800103380BDF850
:101EC4003630ACF80030338837880FFA8EF3BFB25F
:101ED4004FEA8729790109F0787901F47C4149EACC
:101EE400010107F01F0739430B9F38460C9F00FB85
:101EF40001714FEAD1398F0A09F4FC3907F4FC6700
:101F0400C1F3441149EA07070F430399BFB20B44D5
:101F140008993780994230DD079901980F19109973
:101F2400BFB20144029889B200FB071122984FEA1C
:101F3400D10910F809A001F007014AFA01F7F807DE
:101F44001BD46F1C3846BB45D8BFCBEB070090426F
:101F540013D0012000FA01F141EA0A0A019901446F
:101F6400229800F809A0269820F81510279921F83E
:101F74001580BDB2AB4508BF002504998B4230DD06
:101F8400079901980F191199BFB20144029889B2B7
:101F940000FB071122984FEAD10910F809A001F0BB
:101FA40007014AFA01F7FF071BD46F1C3846BB45EB
:101FB400D8BFCBEB0700904213D0012000FA01F107
:101FC400229841EA0A0A019900F809A026980139E1
:101FD40020F81510279921F81580BDB2AB4508BF2C
:101FE400002509998B422FDA1299019867180699EE
:101FF400BFB20144029889B200FB071122984FEA4C
:10200400D10810F8089001F0070149FA01F7F80720
:102014001AD46F1CBA46BB45D8BFCBEB070A92450E
:1020240012D0012000FA01F141EA0909211822988D
:1020340000F80890269820F815E0279820F8151045
:10204400BDB2AB4508BF002505998B422DDD069B2B
:10205400019919440846139BE11883B288B2029986
:1020640001FB00302299C308C95C00F0070041FA63
:1020740000F7FF0719D46F1CB846BB45D8BFCBEB9C
:102084000708904511D04FF0010808FA00F0084302
:102094002299013CC854269B23F815E0279B23F87A
:1020A4001540BDB2AB4508BF0025AA427FF4CFAEB0
:1020B400229815B0BDE8F08FC3F1EF039BB2BDF8D1
:1020C4003800ACF800003380BDF83C30ACF8003088
:1020D4003180F4E6C1F59F71013189B2EFE703461F
:1020E4000598C0F1F002521AC0F1EF0408461946EF
:1020F400049B92B2A4B21F4631E6049C059DC4F130
:10210400F002C5F5A073C5F59F77121A5B1A013763
:10211400C4F1EF0492B29BB2BFB2A4B21FE600BFF7
:102124002DE9F04F121A8DB092B2C1EB030B164693
:1021340001921FFA8BF21746BDF868400292230100
:1021440003F4704EA502BDF9743005F07075E20811
:10215400049302F01E024EEA05031A43059204F0AA
:102164000F020692BDF95C2001360792049BBDF96B
:10217400602007F10108B5B208951FFA88F80992A2
:10218400BDF864C0BDF96CA0BDF9709053B98AEA7A
:10219400EA7289EAE973A2EBEA72A3EBE9731344E6
:1021A4001BB20493049C864B002CB8BF644224B237
:1021B4001B78202CA8BF2024022BC4F34F0500F069
:1021C400E980032B00F0D880012B00F0BB808B4604
:1021D40086464246089E0644013EB6B237460A4445
:1021E400013A92B20392774B4FF0C04250261680C8
:1021F400512618801680522053261F801080198083
:102204001680BDF80C6021201E804FF0200622218C
:102214001680A3F800E01080A3F800B01180B8F194
:10222400000F00F0A6809846BDF81C30BDF824E0ED
:102234000A93013319460B93029B0EF101021846CF
:10224400019B1044079202461846084492B283B296
:10225400169F09920393089B002B00F081800CFBCE
:102264000EF302930B9B0A9E0193029BB8F8001095
:10227400F318DA08BA5C03F00701B8F8000042FA70
:1022840001F111F0010180B252D1002C50DD012383
:102294001A4609FB035B0AFB03539BFBF4FB93FB0A
:1022A400F4F3CBEB0E0BF31A1FFA8BFB9BB20CFB74
:1022B4000B334FEAD30B17F80BB003F007034BFAB9
:1022C40003F3013203F0010392B21944A24289B22A
:1022D4001346DEDD61B3069B049A01FB03F35B0046
:1022E40093FBF4F39BB2202B28BF2023002AB8BF12
:1022F400C3F12003059EB8BF9BB28102420106FBD5
:1023040003F601F0787102F47C4200F01F000A43E6
:102314000243C3F1200303FB0266F20BB30A02F487
:10232400FC3203F4FC631343C6F34416334398B2FC
:10233400BDF80460039BA8F800009E4210D0731CF3
:10234400019392E7089AC0F5A073C0F59F7001301D
:102354009B1A1FFA80FB8E460846464699B23AE716
:10236400BDF81CE0099B9E4503D00EF101030793C1
:1023740071E70DB0BDE8F08FC1F1F003C8EB0303C2
:10238400C1F1EF011FFA81FE83460146089A98B213
:10239400464620E7089FC0F1F006C1F5A072C1F5DA
:1023A4009F73F61BC0F1EF0EC8EB02020133B0B20B
:1023B40091B21FFA8EFE1FFA83FB42463E460AE79D
:1023C4009C000020000002602DE9F043012199B037
:1023D4004FF4807018AC02F041FC0227DFF8C8808B
:1023E40001217C2002F062FC24F85C7D21464046F9
:1023F4004FF0030910268DF806908DF8076001F060
:10240400FDFB4CF23372274D214628461823ADF8C4
:1024140004208DF807308DF8069001F0EFFB4FF69D
:10242400807340462146ADF8043001F0E7FB2146B5
:1024340028468023ADF8043001F0E0FB214628460D
:102444004FF40063ADF8043001F0D8FB08210024F8
:102454000DEB01034FF0050E4FF4805209A84FF025
:102464008055CDF810E00B911292169317930297B2
:102474000C96039405940694079409940A940D9475
:102484000F94109411941394149415940E94089525
:1024940002F09AFD2046012103F0E6F819B0BDE8E8
:1024A400F08300BF001401400018014030B50B4C0C
:1024B40083B0032210234FF40055204601A98DF860
:1024C40006208DF80730ADF8045001F097FB29463B
:1024D400204601F003FF03B030BD00BF00140140EB
:1024E40010B5194C0221194801F0F8FE1849236867
:1024F4000122A1FB0313D9090B4609B1013BFDD10C
:10250400013AF9D10221114801F018FF104923685A
:102514000A22A1FB0313D9090B4609B1013BFDD1E2
:10252400013AF9D10221094801F0D8FE236808498B
:102534003222A1FB0331C9090B4609B1013BFDD18C
:10254400013AF9D110BD00BF10000020001801406D
:10255400F1197605F8B5FFF7C3FF49F225324FF0BC
:10256400C04100206A4B08801B889BB2934204D070
:102574004FF46271674800F0FBF941F2300640F213
:10258400331743F20105624B4FF0C0420121118021
:1025940061484FF4807402211C8011804FF4E06480
:1025A40000211C80017041700324042014801E80CB
:1025B400072410800C261020198014801F80168098
:1025C4001D80108055481127122613251980178065
:1025D4001C80168019801580198051490368C8220F
:1025E400A1FB031323FA04F10B4609B1013BFDD10E
:1025F400013AF9D140F2272141F29045444B4FF082
:10260400C0421026112416801D801480198044496C
:1026140003683222A1FB0313D9090B4609B1013B1C
:10262400FDD1013AF9D13A4B4FF0C0411C2212249A
:102634000C801A803A4903683222A1FB0313D9099A
:102644000B4609B1013BFDD1013AF9D1304B4FF0B2
:10265400C04113240C804FF4D057292625252B2460
:102664001F800E801D800C801A802D490368322241
:10267400A1FB0331C9090B4609B1013BFDD1013A64
:10268400F9D140F2065540F2072040F2063740F2F5
:10269400027641F2046440F2077E4FF0C0413023D9
:1026A4000B801B4B1A8031220A8032221D800A8043
:1026B4004FF482721A8035220A80362218800A80EA
:1026C4000F203722188038250A804FF48170392270
:1026D4001F800D803C2718803D250A8060204FF420
:1026E4002742A3F800E00F801E8061270D80012699
:1026F4001C809025088010241A8092204FF4C06218
:102704000F801E800D801C8008801A80F8BD00BFD9
:102714000000026004DE02089C000020100000207B
:10272400F119760540F23112284B2948F0B44FF0E4
:10273400C04107240C801A80264903680A22A1FBA1
:10274400031323FA04F10B4609B1013BFDD1013A0D
:10275400F9D11E4B4FF0C04107244FF498720C80FE
:102764001A801C4903680A22A1FB031323FA04F10B
:102774000B4609B1013BFDD1013AF9D1134B4FF09E
:10278400C041072510240D8080271A8011260C8053
:10279400122513241F800E801A800D801A800C804D
:1027A4001A800C490368C822A1FB0331C9090B46EE
:1027B40009B1013BFDD1013AF9D1044B4FF0C041BD
:1027C400102082220880F0BC1A807047000002604A
:1027D40010000020F1197605384BF0B44FF0C042D8
:1027E40010258024112015801C801080344800217D
:1027F40007251227132601241980178019801680B3
:10280400198015802F491C800368C822A1FB03137B
:1028140023FA05F10B4609B1013BFDD1013AF9D187
:1028240040F2272141F29045244B4FF0C04210263C
:10283400112416801D8014801980224903683222D5
:10284400A1FB0313D9090B4609B1013BFDD1013AA0
:10285400F9D11A4B4FF0C0411C2212240C801A806B
:10286400184903683222A1FB0313D9090B4609B1A5
:10287400013BFDD1013AF9D1104B4FF0C042252163
:1028840013264FF4D055292416801D8014801980F6
:1028940003680C493222A1FB0331C9090B4609B173
:1028A400013BFDD1013AF9D140F23312F0BC034BA4
:1028B4004FF0C041072008801A8070470000026072
:1028C40010000020F1197605704700BFFEE700BF35
:1028D400FEE700BFFEE700BFFEE700BF704700BF92
:1028E400704700BF704700BF704700BF2DE9F84331
:1028F4001E21D2231A460846FDF716FD43F25076F0
:102904006FF0590808FB08F51E24A8F1110708F216
:10291400011904E00134FDF767FDF02C15D0A4F192
:10292400780303FB0353B342F4DCBC42F2DB08F14B
:1029340078034C452344EDDCF02BEBDD0C21002027
:102944000134FDF787FDF02CE9D108F10108B8F155
:10295400780FD7D1BDE8F88382B00190019B2BB1E9
:10296400019B013B0193019B002BF9D102B07047FD
:10297400FEE700BFF8B501FB00F10D4C0746A06A65
:10298400C1F3CF05164608B103F0DAFC284603F07C
:10299400CFFC6784A06235B10023C654013398B2DA
:1029A4008542A06AF9D80023E384A384F8BD00BF5C
:1029B400D8000020014B9884D9847047D8000020A7
:1029C400044B10B4DA8C9C8C114420449884D98430
:1029D40010BC7047D8000020704700BF2DE9F04FAD
:1029E40091B09946BDF86C409DF8703006460F468C
:1029F4009046BDF868000E93002C00F0BE80651C64
:102A040005FB05F204FB04F392109B10C3EB020ACE
:102A14000D92C5F34F051FFA8AFAC7EB090C1FFA8A
:102A24008CFC0FFA8CF202FB02F4C6EB080E1FFAC0
:102A34008EFE0FFA8EF101FB01440F94744C4FEAA1
:102A4400802B6361030103F470430BF0707B4BEA4A
:102A5400030B0D9BA4F802C0A36101EAE17CC30847
:102A6400A4F80CA021EAE17A0F9903F01E034BEAC3
:102A74000303A4F800E0216102EAE27E00F00F0003
:102A840022EAE2720F21E361A4F804C0A4F806A0CC
:102A9400A4F808E06281FDF703FD0E9B84F8200092
:102AA400DB0771D5B045404628BF3046B945494695
:102AB40028BF3946B4F90230B4F90020002BB8BF5E
:102AC4005B42002AB8BF5242013301329BB292B238
:102AD400FDF72AFCEE46DFF83CA1BAE80F00AEE8A9
:102AE4000F009AE807008EE8070094E80F00FEF74D
:102AF40003F8EE460B95CDF82890CDF8248008977E
:102B04000796AAF1100CBCE80F00AEE80F009AE893
:102B140007008EE8070094E80F00FEF7BDF9EE46C3
:102B24000B950A970996CDF82090CDF81C80AAF150
:102B3400100CBCE80F00AEE80F0022886388A08C5C
:102B4400E18C10441944A084E18452425B42228007
:102B540063809AE807008EE8070094E80F00FEF708
:102B64009BF9A08C2288E18C63880244A06A0B4400
:102B7400A284E38411B0BDE8F08F4FF0010A23462C
:102B8400CDF834A0554648E7B4F900B0B4F902A032
:102B9400BBF1000FB8BFCBF1000BBAF1000FB8BF07
:102BA400CAF1000A0BF1010B0AF1010A0BEB450B08
:102BB4000AEB450A1FFA8BFB1FFA8AFA0BFB0AFA87
:102BC400A06ACAF3CF0A08B103F0BAFB504603F077
:102BD400AFFBA4F822B0A062BAF1000F08D0002322
:102BE400194600E0A06AC15401339AB25245F9D3A0
:102BF400B045404628BF3046B945494628BF394606
:102C0400321A7B1A2A442B44A284E38452E700BF7D
:102C1400D8000020E80000202DE9F04F95B00D9277
:102C2400BDF878509DF87C2083460C911392002DBA
:102C340000F0DA8105F1010909FB09FE05FB05F540
:102C44004FEAAE0EAD10C9F34F09C5EB0E0709F1FB
:102C54000106BFB2B6B29802190100F07070DA082A
:102C640001F47041CF4C014302F01E020A4303F009
:102C74000F000F21E261C4F818E0A7816561FDF738
:102C84000FFC84F820000D980C9A0128BBF8007002
:102C9400B2F800E040F2E6819446594672463B465B
:102CA400A0F102081FFA88F808F101080BEB4808A4
:102CB40031F8025F3CF8020FAB4228BF2B46824238
:102CC40038BF0246AF4238BF2F46864528BF8646E6
:102CD40041459BB292B2EBD11399C90740F1898166
:102CE400A38C1193E38C12930D9B012B40F2B881BA
:102CF4005F46BDF844300C9E0F93BDF848304FF04A
:102D040001081093CDF838B07B883988A64D591A3C
:102D140089B221807388308809B2181A80B20FFAF8
:102D240080FE60800EEAEE7A01EAE170A4F808A061
:102D3400A0802EEAEE7C21EAE17A0E98A4F80AC07B
:102D4400A4F806A000880F9BB7F800C0181A6044C6
:102D54000C9BA084B3F800C08EEAEE7B109BB6F8FF
:102D640000A0ABEBEE7B0EFB0EFECCEB030050445D
:102D7400E08481EAE172B6F800C001FB01EEA2EB47
:102D8400E17271883888614528BF6146B7F802C08E
:102D94000BF10103604502F1010228BF60469BB2BA
:102DA40092B2C4F810E0FDF7BFFA0FCDEE46AEE8DC
:102DB4000F0095E807008EE8070094E80F00FDF780
:102DC4009BFEEE46CDF82C907388B6F800B00A93BB
:102DD4007B88B7F800A0A5F1100C0993BCE80F009C
:102DE400CDF820B0CDF81CA0AEE80F0095E80700A0
:102DF4008EE8070094E80F00FEF74EF8EE462288AE
:102E04006388A08CE18C1044194452425B42A08434
:102E1400E184228063803088398836F8022F37F8BD
:102E2400023FA5F1100CCDF82C900A90099108925C
:102E34000793BCE80F00AEE80F0095E807008EE8A2
:102E4400070094E80F00FEF727F808F101080D9B2E
:102E54001FFA88F843457FF457AF1E46DDF838B0B3
:102E6400139B9B0740F1B6800D9B0C9D03F100471B
:102E7400013F3BF81710BBF80030DFF82CA1591ABA
:102E840089B221802B8835F8170009B2181A80B24C
:102E94000FFA80FE0EEAEE786080A4F808802EEA2D
:102EA400EE7C01EAE17021EAE178A4F80680A4F856
:102EB4000AC0A0808EEAEE733BF81700BBF800C08E
:102EC400A3EBEE730D93119BCCEB00001844A0848C
:102ED40035F81700B5F800C0129B0EFB0EFECCEBC4
:102EE40000001844E08481EAE17235F817C001FB60
:102EF40001EEA2EBE17229883BF81700614528BF77
:102F040061460D9BBBF800C00133604502F101022C
:102F140028BF60469BB292B2C4F810E0FDF704FAF1
:102F2400BAE80F00EE46AEE80F009AE807008EE814
:102F3400070094E80F00FDF7DFFDEE4606F10046BA
:102F4400013E35F816203BF81730B5F80080BBF881
:102F540000C0AAF110060892CDF82C9007930FCE6A
:102F64006E46CDF82880CDF824C0AEE80F009AE86C
:102F740007008EE8070094E80F00FDF78DFF228814
:102F84006388A08CE18C1044194452425B42A084B3
:102F9400E1842280638035F817003BF817102A88F3
:102FA40004E000BFD8000020E8000020BBF8003097
:102FB400AAF11007CDF82C900A9009910892079372
:102FC4000FCF0FC69AE8070086E8070094E80F00C1
:102FD400FDF762FFBDF84430A06AA384BDF8483011
:102FE400E38415B0BDE8F08F0127BE46B94602263A
:102FF40031E6C9EB0303C9EB0E0E37449DB21FFA49
:103004008EF816447F1BC8EB0606BFB2B6B207FBA8
:1030140006F6A06AC6F3CF0608B103F091F930466C
:1030240003F086F96784A06246B10023194600E0E4
:10303400A06AC15401339AB2B242F9D30023E384A3
:10304400A384BBF800305D1BABB2A38411930C9B2B
:103054001B88C8EB03081FFA88F31293E38443E642
:103064000126FDE672463B4636E600BF2DE9F04FE9
:1030740087B09DF844409946E307074688461646BC
:10308400BDF840A015D51C4B9A8CD98C986A5B8CE2
:1030940009B212B20391029204930190CDF800A0F8
:1030A4004B46324641463846FEF7AEF907B0BDE816
:1030B400F08F530001339CB204FB04FB0E4DCBF3A1
:1030C400CF0BA86A08B103F03BF9584603F030F976
:1030D400A3B2A8626B84BBF1000F08D0002423467E
:1030E40003550134A0B28345A86AF9D86B8CB2B2F7
:1030F4001146AA84EA84CBE7D80000202DE9F843DE
:1031040004468788C6884588984608463B46114643
:103114003246B4F80090FDF707F9032D0FD0042DC3
:103124000BD1B8F1FF0F1ED0424607FB06F104EBAA
:103134004900BDE8F843FDF75FBBBDE8F883B8F18B
:10314400FF0F08D0424607FB06F104EB4900BDE837
:10315400F843FDF711BB07FB06F104EB4900BDE89A
:10316400F843FDF7C7B907FB06F104EB4900BDE8D6
:10317400F843FDF7CBB900BF2DE9F8430446868830
:10318400C588478899460846334611462A46B4F806
:103194000080FDF7C9F8032F0CD0042F08D14A464C
:1031A40006FB05F104EB4800BDE8F843FDF7B4BBAA
:1031B400BDE8F8834A4606FB05F104EB4800BDE888
:1031C400F843FDF765BB00BF2DE9F8430446868844
:1031D400C588478899460846334611462A46B4F8B6
:1031E4000080FDF7A1F8032F0CD0042F08D14A4624
:1031F40006FB05F104EB4800BDE8F843FDF7F0BB1E
:10320400BDE8F8834A4606FB05F104EB4800BDE837
:10321400F843FDF7C3BB00BF38B504461D46084656
:1032240063781146A278FDF77FF8A1786378207857
:1032340003FB01F12A462044C1F34F01BDE83840A5
:10324400FDF724BA2DE9F04FDFF880B18BB05E466C
:10325400BDF85C40BDF850A0BDF85480BDF858706E
:103264009DF8609008940124651C3BF815508D422C
:1032740008D036F814502C44A4B2002CF4D10BB06E
:10328400BDE8F08F02340592620004921A07099196
:10329400039040F09380039B1B88002BEFD0089A87
:1032A400002AECD0099A09F003010792059A0291C9
:1032B40022F0080282F47F4282F0F0020692002695
:1032C400002F67D0049A03F10043013B02EB430350
:1032D4003BF80340DFF8F8904C44A278BA4259DA3C
:1032E40000252BE00AEB050092B280B263784146D8
:1032F400FDF71AF86378A178207803FB01F1059AA9
:10330400C1F34F012044FDF7C1F90136039AB6B267
:10331400A37832F816201D44049902F10043013BBE
:1033240001EB4303ADB2002AA9D0AF4221D93BF847
:1033340003404C44A278AB18BB421ADA029B002B20
:10334400D0D0BDF8081063780AEB0100284441444A
:1033540080B289B2FCF7E8FFA1786378207803FB98
:1033640001F1069A2044C1F34F01FDF78FF9A278C9
:10337400B8E7089B079A934281D9134609990B44ED
:103384009BB20793039B88441FFA88F833F81630DE
:10339400002F97D1089B079A93427FF670AF099844
:1033A400039B024433F81630804492B207921FFA0A
:1033B40088F8002B84D10BB0BDE8F08F00933A4617
:1033C400089B41465046FEF729FA64E714DD0208DB
:1033D40094BF02082DE9F043ADF6EC0DDDF8184971
:1033E400BDF808E9BDF80CC9BDF91089BDF91499F7
:1033F400BDF81C59BDF82069C4B1069605950DF5B4
:1034040091670AAE4FF40C750494CDF80C90CDF886
:103414000880CDF804C0CDF800E009970896079518
:10342400FEF76AFC0DF6EC0DBDE8F083014DAC6AC5
:103434006D8CE2E7D80000202DE9F043079CBDF92C
:103444002060BDF92470BDF82850BDF82CE0BDF90A
:1034540030C0BDF93480BDF938907CB1CDF83890D6
:10346400CDF83480CDF830C0CDF82CE00A9509971A
:1034740008960794BDE8F043FEF752BE014DAC6ACE
:103484006D8CEBE7D80000203C4B30B418683C4905
:1034940040F0010018605D6882B0294059601968E5
:1034A400002021F0847121F48031196019684FF4EF
:1034B4001F0421F48021196059681A4621F4FE0181
:1034C40059609C6000900190196841F48031196042
:1034D40003E0009BB3F5A06F09D0136803F4003335
:1034E4000193009B01330093019B002BF1D0234BEC
:1034F4001B6813F4003318BF01230193019B012BB4
:1035040006D0204B4FF000629A6002B030BC704786
:103514001D4A1A4B1068194640F0100010601068DC
:1035240020F003001060106840F0020010605A6838
:103534005A605A685A605A6842F480625A605A68FB
:1035440022F47C125A605A6842F4E8125A601A68EB
:1035540042F080721A600B68084A9B01FBD5114641
:10356400536823F003035360536843F0020353602A
:103574004B6803F00C03082BFAD1C2E70010024099
:103584000000FFF800ED00E000200240114A5368FB
:1035940003F00C03082B0ED153685168C3F3834323
:1035A400C90303F1020310D5526892030DD40A4AE9
:1035B40002FB03F300E0084B064A08495268C2F3D1
:1035C40003128A5CD3400B617047054A02FB03F384
:1035D400F2E700BF0010024000127A000000002051
:1035E40000093D00F0B47E4C7E4F7F4D7F4E276036
:1035F4007F4B8049804A8148814C2E60A7F5404723
:10360400804D196010602760A6F530467E4B7F4AD6
:103614007F4C804F2E6001F5744100F500607E4DB3
:1036240019601060276006F5C4367C4B7C4A7D4CDB
:103634007D4F00F5C6302E60A1F5305108307B4D2A
:103644001960106027603036794B7A4A7A4C2E60C4
:10365400A1F56F7150305037784D196010602760B4
:103664005036774B774A784C2E6001F5717100F52E
:10367400717007F57177754D19601060276006F554
:103684007176734B734A744C744FA0F580302E607E
:1036940050311C38724D734E1960106027607249A6
:1036A400724B7348734A744F2E604FF020450D607F
:1036B40018601760714C724E7249734B7348744AA8
:1036C400744FA03526600D60734C1860734E1760FC
:1036D4007349744D744B754A00F5805007F5805753
:1036E40026600D6018601760714C7249724B734A02
:1036F40006F58056A5F5A055A0F54440A7F5444726
:1037040026600D60186017606D4C6E496E4D6F4BEE
:103714006F48704AA6F5704607F5C05726600D60DD
:10372400186017606C4C6D496D4D6E4B6E486F4A56
:1037340006F5F03607F5404726600D6018601760FF
:103744006B4C6C496C4B6D486D4AA6F5EC3605F52F
:10375400A055A7F5806726600D6018601760694E54
:10376400694C6A496A486B4B6B4AA5F560554FF042
:1037740080473760256008601A60684E684C694964
:10378400694B07F5805705F5805500F5963002F52D
:103794009A323760256008601A60644E644C65494B
:1037A400654B07F59A3705F59A3500F58060A2F563
:1037B4007C42376025600860604E1A60604C614945
:1037C400614BA7F57C47A5F57C45A0F56840A2F5BB
:1037D400C0523760256008601A60F0BC704700BFB3
:1037E40078020020002401401C020020002801402F
:1037F40004020020003C0140D0020020006C004084
:1038040064020020A8020020340200209C02002050
:1038140068020020002004E0B0020020FC01002027
:1038240048020020CC0200201C00024018020020A4
:103834004402002084020020F80100201402002029
:10384400EC0100203C0200208C020020C802002071
:10385400B8020020C0010020F00100200020024036
:103864007C02002000F8FF1FE8010020380200203D
:10387400040100A098020020600000A0C002002003
:10388400800000A0D0010020700200200008014048
:10389400C8010020000C014050020020001001402B
:1038A4004C0200200014014080020020000200208D
:1038B400200200206C020020DC010020F401002022
:1038C400B40200209402002000E100E0C4010020C2
:1038D40000ED00E030020020BC0200204002002085
:1038E400002800402C0200200080014088020020B3
:1038F400D40100205C020020C402002010E000E09B
:1039040060020020A4020020E00100201002002038
:103914000008004074020020000C004058020020FF
:10392400A00200200C02002090020020540200207B
:1039340024020020AC020020CC0100200802002058
:10394400E401002028020020D8010020EFF30880C1
:10395400004670474FF0FF30704700BF08B502F0D3
:10396400E1FC0C2303604FF0FF3008BD08B502F002
:10397400D9FC0B2303604FF0FF3008BD4FF4005314
:103984004B600020704700BF01207047022801D817
:103994000120704708B502F0C5FC0923036000202C
:1039A40008BD00BF08B502F0BDFC162303604FF04C
:1039B400FF3008BD08B502F0B5FC1F2303604FF0CB
:1039C400FF3008BD00207047124910B50A6803464D
:1039D400E2B1FFF7BBFF1344834202D80B601046E9
:1039E40010BD0D4A0D49144601F1190013885B06F8
:1039F400FCD511F8013B8142A380F7D102F092FC7F
:103A04000C234FF0FF320360104610BD04480246F9
:103A14000860DEE7040100200038014014DE0208DB
:103A2400D802002070B582B0A8B90190019B9A42D7
:103A34000FDD0C4C0D46264623889B06FCD5B0882A
:103A4400019B05F8010B01330193019B681A934212
:103A5400F2DB02B070BD02F065FC092303604FF095
:103A6400FF30F6E70038014003490B88024A9B0601
:103A7400FBD59088C0B27047003801404FF4005322
:103A84004B600020704700BF4FF0FF30704700BF0D
:103A940008B502F047FC022303604FF0FF3008BD75
:103AA40008B502F03FFC0A2303604FF0FF3008BD65
:103AB400012838B517D002280ED1002A0ADD114C8E
:103AC4008D18204623885B06FCD511F8013BA942DA
:103AD4008380F7D1104638BD02F024FC092303602B
:103AE4004FF0FF3038BD002AF4DD064C8D18204617
:103AF40023885B06FCD511F8013BA9428380F7D1EA
:103B0400104638BD0038014008B5344B984227D0E0
:103B140003F5806398422DD003F5806398423FD02B
:103B240003F58063984245D003F5806398420DD035
:103B340003F58063984247D003F58063984223D00D
:103B4400BDE808406F212648FEF712BF012140203E
:103B540001F0FCF8BDE808400021402001F0F6B86F
:103B64000121042001F0F2F8BDE8084000210420FE
:103B740001F0ECB80121082001F0E8F8BDE80840A4
:103B84000021082001F0E2B801214FF4807001F017
:103B9400DDF8BDE8084000214FF4807001F0D6B88C
:103BA4000121102001F0D2F8BDE8084000211020C6
:103BB40001F0CCB80121202001F0C8F8BDE808408C
:103BC4000021202001F0C2B80121802001F0BEF8BC
:103BD400BDE808400021802001F0B8B80008014089
:103BE40030DE020808B50121084601F0AFF8BDE84F
:103BF40008400021012001F0A9B800BFC14B70B5F5
:103C0400984204460E461BD003F58063984217D0B1
:103C140003F58063984213D003F5806398420FD074
:103C240003F5806398420BD003F58063984207D074
:103C340003F58063984203D0B221B348FEF798FE9F
:103C4400F27812F0FB0F40D0282A3ED0482A3CD00C
:103C540002F0F303102B00F04381B321AA48FEF7CE
:103C640087FE33881BB9B421A748FEF781FEF37899
:103C740003F00F05DB0640F11E82B278531E022BBF
:103C840000F2398133882A4313F0FF0F25D1FF2B2B
:103C940040D903F4807080B2616800283BD19D054F
:103CA40000F1C880580500F1AD801D0500F1B68013
:103CB400D80479D49D0400F18380580400F18C80E9
:103CC4001B0400F19580616070BD3388002BCAD05D
:103CD40002F00F0213F0FF0FD9D013F00100216896
:103CE40040F0B480980700F111815D0700F1538121
:103CF400180700F14581DD0600F13681980600F1D0
:103D040027815D0600F11881180600F10B81FF2B55
:103D14002160BED870BDF57821F00F01282D41EA4D
:103D2400020100F04381482DB9D19D052061B9D528
:103D340021F0F00141EA02114FF4007020615805AE
:103D4400B3D521F4706141EA02214FF480601D056E
:103D54002061ADD521F4704141EA02314FF4006095
:103D64002061D804A6D521F4702141EA02414FF420
:103D740080509D042061A0D521F4700141EA0251D4
:103D84004FF40050206158049AD521F0706141EA43
:103D940002614FF480401D04206194D562F31F71C9
:103DA4004FF4004323618EE7F07821F47021282832
:103DB40041EA024100F0208148287FF47BAFD6E736
:103DC400F07821F47001282841EA025100F01E81A4
:103DD40048287FF472AFD3E7F07821F07061282887
:103DE40041EA026100F01C8148287FF469AFD0E702
:103DF400F37862F31F71282B00F01A81482B7FF4AB
:103E040062AFCDE7F07821F47061282841EA0221FD
:103E140000F0DE8048287FF448AF96E7F07821F47C
:103E24007041282841EA023100F0DC8048287FF400
:103E34003FAF93E7F07821F0F001282841EA02111E
:103E440000F0BC8048287FF42DAF75E7F57821F0A9
:103E54000F01282D41EA020100F0EE80482D7FF485
:103E640041AF206198077FF540AF21F0F00141EAAE
:103E7400021102205D0720617FF53AAF21F47061E1
:103E840041EA02210420206118077FF534AF21F4B0
:103E9400704141EA02310820DD0620617FF52EAF32
:103EA40021F4702141EA02411020206198067FF537
:103EB40028AF21F4700141EA025120205D062061FF
:103EC4007FF522AF21F0706141EA02614020206158
:103ED40018067FF51CAF62F31F718020206116E77E
:103EE400338802F00F05002B3FF4BDAEB278531EA9
:103EF400022B7FF6C7AEBB210348FEF739FDB2782B
:103F0400C0E600BF0008014030DE0208F07821F06E
:103F1400F001282841EA021100F0968048287FF435
:103F2400E4AEA6E7F07862F31F71282800F0C080A1
:103F340048287FF4ECAED0E7F07821F070612828AF
:103F440041EA026100F0AD8048287FF4DDAEBDE7B0
:103F5400F07821F47001282841EA025100F0988099
:103F640048287FF4CEAEA8E7F07821F47021282801
:103F740041EA024100F0838048287FF4BFAE93E712
:103F8400F07821F47041282841EA02316ED04828A3
:103F94007FF4B1AE7FE7F07821F47061282841EA1C
:103FA40002215AD048287FF4A3AE6BE760619805DC
:103FB4007FF578AE21F0F00141EA02114FF4007070
:103FC4005D0560617FF571AE21F4706141EA022103
:103FD4004FF48060606118057FF56AAE21F470418A
:103FE40041EA02314FF40060DD0460617FF562AEA6
:103FF40021F4702141EA02414FF480506061980439
:104004007FF55BAE21F4700141EA02514FF4005098
:104014005D0460617FF554AE21F0706141EA026194
:104024004FF48040606118047FF54DAE62F31F7158
:104034004FF40043636146E69D0760617FF555AE2A
:1040440021F0F00141EA02110220606158077FF576
:104054004FAE21F4706141EA022104201D07606122
:104064007FF549AE21F4704141EA023108206061D4
:10407400D8067FF543AE21F4702141EA02411020B5
:104084009D0660617FF53DAE21F4700141EA025165
:104094002020606158067FF537AE21F0706141EA57
:1040A400026140201D0660617FF531AE62F31F712D
:1040B400802060612BE62A4633880BE64FF6FF71B9
:1040C4000222042301808270C370704738B5294BE3
:1040D400044698420D461CD003F58063984218D0DC
:1040E40003F58063984214D003F58063984210D09E
:1040F40003F5806398420CD003F58063984208D09E
:1041040003F58063984204D04FF48F711A48FEF788
:104114002FFC6B1E9BB21F2B07D9402D0AD1A3681D
:104124001D4214BF0120002038BD144A22FA03F3B3
:10413400DB07F4D4802DF2D0B5F5807FEFD0B5F550
:10414400007FECD0B5F5806FE9D0B5F5006FE6D00F
:10415400B5F5805FE3D0B5F5005FE0D0B5F5804FED
:10416400DDD0B5F5004FDAD040F21F110248FEF75A
:10417400FFFBD4E70008014030DE02088B8000809A
:10418400124B10B5984204461CD003F58063984244
:1041940018D003F58063984214D003F580639842E5
:1041A40010D003F5806398420CD003F580639842E5
:1041B40008D003F58063984204D04FF49A71044800
:1041C400FEF7D6FBA06880B210BD00BF0008014016
:1041D40030DE020838B5294B044698420D461CD0FF
:1041E40003F58063984218D003F58063984214D095
:1041F40003F58063984210D003F5806398420CD095
:1042040003F58063984208D003F58063984204D094
:104214004FF4A2711A48FEF7ABFB6B1E9BB21F2B27
:1042240007D9402D0AD1E3681D4214BF01200020A4
:1042340038BD144A22FA03F3DB07F4D4802DF2D0FC
:10424400B5F5807FEFD0B5F5007FECD0B5F5806F84
:10425400E9D0B5F5006FE6D0B5F5805FE3D0B5F5EC
:10426400005FE0D0B5F5804FDDD0B5F5004FDAD072
:1042740040F245110248FEF77BFBD4E700080140F9
:1042840030DE02088B800080124B10B59842044641
:104294001CD003F58063984218D003F580639842DC
:1042A40014D003F58063984210D003F580639842DC
:1042B4000CD003F58063984208D003F580639842DC
:1042C40004D04FF4AD710448FEF752FBE06880B2AD
:1042D40010BD00BF0008014030DE020838B5154BA0
:1042E400044698420D461CD003F58063984218D0CA
:1042F40003F58063984214D003F58063984210D08C
:1043040003F5806398420CD003F58063984208D08B
:1043140003F58063984204D040F269110648FEF721
:1043240027FB25B94FF4B5710348FEF721FB25613E
:1043340038BD00BF0008014030DE020838B5154B17
:10434400044698420D461CD003F58063984218D069
:1043540003F58063984214D003F58063984210D02B
:1043640003F5806398420CD003F58063984208D02B
:1043740003F58063984204D040F279110648FEF7B1
:10438400F7FA25B94FF4BD710348FEF7F1FA6561F8
:1043940038BD00BF0008014030DE02082D4B70B567
:1043A400984204460D4616461CD003F58063984295
:1043B40018D003F58063984214D003F580639842C3
:1043C40010D003F5806398420CD003F580639842C3
:1043D40008D003F58063984204D040F28D111E4842
:1043E400FEF7C6FA6B1E9BB21F2B0AD9402D0DD1C6
:1043F400012E2BD940F28F111748FEF7B9FA256127
:1044040070BD164921FA03F3DB07F1D4802DEFD0F8
:10441400B5F5807FECD0B5F5007FE9D0B5F5806FB8
:10442400E6D0B5F5006FE3D0B5F5805FE0D0B5F523
:10443400005FDDD0B5F5804FDAD0B5F5004FD7D0A9
:104444004FF4C7710448FEF793FAD1E7002ED6D192
:10445400656170BD0008014030DE02088B80008079
:1044640038B5124B044698420D461CD003F58063C0
:10447400984218D003F58063984214D003F5806302
:10448400984210D003F5806398420CD003F5806302
:10449400984208D003F58063984204D04FF4D27157
:1044A4000348FEF765FAE56038BD00BF0008014027
:1044B40030DE020838B5184B044698420D461CD02D
:1044C40003F58063984218D003F58063984214D0B2
:1044D40003F58063984210D003F5806398420CD0B2
:1044E40003F58063984208D003F58063984204D0B2
:1044F40040F2B5110948FEF73BFA25B94FF4DB71D8
:104504000648FEF735FA45F48033A361A561A3613B
:10451400A369A36938BD00BF0008014030DE02086A
:10452400042838B505460C4610D80F2C04D940F29F
:10453400D3110948FEF71CFA4FF68073074A116835
:104544000B401C4344EA0514146038BD4FF4E97170
:104554000148FEF70DFAE8E730DE020800000140EA
:10456400012810B5044604D94FF4F3710248FEF74C
:10457400FFF9024B1C6010BD30DE02081C00204213
:1045840038B5431E012B04460D4640F2B98020F491
:104594000013042B76D0082B74D05B4B20F0200240
:1045A4009A426FD0594B20F080029A426AD0584BFD
:1045B40020F400729A4265D003F58073984261D06A
:1045C400544B20F480629A425CD0B0F5805F59D09D
:1045D40020F40053B3F5EA1F54D0B0F5004F51D086
:1045E400A0F50013013B1F2B47D94B4B984249D0F0
:1045F4004A4B9C4246D003F580739C4242D003F55B
:1046040000739C423ED0464B9C423BD003F5706302
:104614009C4237D0B4F5011F34D004F10043013B70
:104624001F2B4BD83F4A22FA03F3D90749D5012D52
:1046340034D940F22B213C48FEF79AF9002C2DDBAB
:104644003A4B04F44012B2F5401F5B68A1B22DD07E
:10465400E2021AD5C4F303400322824023EA020390
:1046640043F070631DB1620D120191400B432F4A58
:10467400002CB4BFD361536038BD2D4A22FA03F332
:10468400D807B5D5012DDBD9D3E7620D120101FAA4
:1046940002F223EA020343F07063E3E7234B04F4DA
:1046A4004012B2F5401FDB69A1B2D1D11F4823F0FB
:1046B4007063426822F070624260D3E71D4B9C42F3
:1046C400B5D01D4B9C42B2D080339C42AFD003F591
:1046D40080739C42ABD003F500739C42A7D003F5D2
:1046E40080639C42A3D003F500639C429FD003F5F2
:1046F40080539C429BD040F22A210B48FEF738F9A4
:10470400012D96D89AE700BF10001400400016004F
:104714000001180000081A004000200000013000C9
:10472400001120008B80008030DE02080000014070
:10473400038000804000008080000080062838B597
:1047440005460C461BD80F2C04D940F266210F48AD
:10475400FEF70EF904F0FC0303F1804303F5803304
:1047640004F003049968A4000F22A24021EA020283
:104774009A609A6805FA04F414439C6038BD40F2C8
:1047840065210248FEF7F4F8DDE700BF30DE0208D9
:10479400012810B5044604D94FF41E710248FEF7EF
:1047A400E7F8024B1C6010BD30DE0208DC0020423A
:1047B4000D4B0E4A19684FF41F0041F001011960B6
:1047C40059680A405A601A6822F0847222F48032CE
:1047D4001A601A6822F480221A605A6822F4FE02CF
:1047E4005A609860704700BF001002400000FFF854
:1047F40010B5E8B1B0F5803F32D0B0F5802F21D0AC
:10480400044640F211111B48FEF7B2F81A4BB4F5F6
:10481400803F1A6822F480321A601A6822F48022D7
:104824001A600ED1144A136843F48033136010BD28
:10483400114B1A6822F480321A601A6822F480221A
:104844001A6010BD0C4B1A6822F480321A601A6880
:1048540022F480221A601A6842F4A0221A6010BD61
:10486400054B1A6822F480321A601A6822F48022F6
:104874001A60D7E7B8DE02080010024082B00023B5
:104884000A4A019302E0B3F5A06F08D0136813F449
:10489400003F019B03F101030193019BF3D0034B00
:1048A4001868C0F3404002B0704700BF00100240D7
:1048B4001F2810B5044604D94FF4A9710548FEF722
:1048C40057F8054B186820F0F80040EAC400186057
:1048D40010BD00BFB8DE020800100240012810B568
:1048E400044604D940F265110248FEF741F8024B30
:1048F4001C6010BDB8DE02080000424238B530F436
:10490400803305460C4607D0B0F5403F04D040F252
:104914007F111148FEF72CF834F4402324F480224C
:1049240007D10E4A536823F47C131C432C43546070
:1049340038BDB3F5801FF4D0B3F5001FF1D0B2F544
:10494400401FEED0B4F5601FEBD04FF4C0710248A5
:10495400FEF70EF8E5E700BFB8DE020800100240DB
:10496400012810B5044604D94FF4CA710248FDF772
:10497400FFFF024B1C6010BDB8DE0208600042421B
:10498400022810B5044604D94FF40E710448FDF70B
:10499400EFFF044B586820F003002043586010BD1B
:1049A400B8DE020800100240024B586800F00C0008
:1049B400704700BF0010024030F0800310B5044679
:1049C40012D020F02003902B0ED020F04003A02B17
:1049D4000AD020F01003C02B06D0F02804D04FF4E6
:1049E40019710548FDF7C4FF044B586820F0F00026
:1049F4002043586010BD00BFB8DE0208001002401A
:104A040030F4806310B504460CD020F40073B3F581
:104A1400A06F07D0B0F5C06F04D040F27E210548E6
:104A2400FDF7A6FF044B586820F4E060204358606B
:104A340010BD00BFB8DE02080010024030F48063ED
:104A440010B504460CD020F40073B3F5A06F07D062
:104A5400B0F5C06F04D04FF426710548FDF788FF08
:104A6400044B586820F4605040EAC400586010BDFC
:104A7400B8DE02080010024010F0E00F38B504461A
:104A84000D460CD158B1012D10D94FF430710B489B
:104A9400FDF76EFF0A4A13781C43147038BD40F2C8
:104AA400BF210648FDF764FF012DEED8002DF1D19A
:104AB400034A137823EA0404147038BDB8DE0208EC
:104AC40009100240012810B5044604D940F2DB2144
:104AD4000248FDF74DFF024B1C6010BDB8DE020812
:104AE400D800424230F4404310B5044604D040F2AA
:104AF40002310548FDF73CFF044B586820F4404060
:104B04002043586010BD00BFB8DE02080010024008
:104B1400012810B5044606D904280DD04FF450716D
:104B24000A48FDF725FF0A4B0022012C1A701A705F
:104B34000AD0042C04D010BD054B00221A701A7040
:104B4400034B05221A7010BD1C7010BDB8DE02089C
:104B540020100240012810B5044604D940F2613106
:104B64000248FDF705FF024B1C6010BDB8DE0208C9
:104B74008004424220F40073B3F5807F10B50446EC
:104B840007D0B0F5007F04D040F272310348FDF73E
:104B9400EFFE034B186A2043186210BDB8DE02080A
:104BA40000100240012810B5044604D94FF4607186
:104BB4000248FDF7DDFE024B1C6010BDB8DE0208A2
:104BC4003C044242214A10B4536803F00C03042B02
:104BD40006D0082B25D01BB11D4A1346026001E004
:104BE4001B4B0360194A1B495468C4F303140C5D3E
:104BF400E34043605468C4F302240C5D23FA04F4D4
:104C040084605468C4F3C2240C5DE340C3605268FA
:104C140010BCC2F381320A44127CB3FBF2F3036189
:104C2400704753685168C3F38343C90303F1020314
:104C340007D55268920304D4054A02FB03F30360C8
:104C4400D0E7054A02FB03F30360CBE70010024000
:104C540000127A001800002000093D0038B520F445
:104C6400AA6323F0070304460D4663B958B1012D26
:104C740010D940F22C410B48FDF77AFE0A4A5369D9
:104C84001C43546138BD40F22B410648FDF770FEC9
:104C9400012DEED8002DF1D1034A536923EA04040F
:104CA400546138BDB8DE02080010024038B5104B1C
:104CB400044603400D4663B958B1012D10D940F2A2
:104CC4004B410C48FDF754FE0B4A93691C43946115
:104CD40038BD40F24A410748FDF74AFE012DEED89F
:104CE400002DF1D1044A936923EA0404946138BD88
:104CF4000200C0FFB8DE02080010024038B5104BB5
:104D0400044603400D4663B958B1012D10D940F251
:104D14006A410C48FDF72CFE0B4AD3691C43D4614D
:104D240038BD40F269410748FDF722FE012DEED857
:104D3400002DF1D1044AD36923EA0404D46138BDB7
:104D440000360181B8DE02080010024038B5104B6D
:104D5400044603400D4663B958B1012D10D940F201
:104D6400A5410C48FDF704FE0B4AD3681C43D460EC
:104D740038BD40F2A4410748FDF7FAFD012DEED8F5
:104D8400002DF1D1044AD36823EA0404D46038BD69
:104D94000200C0FFB8DE02080010024038B5104B14
:104DA400044603400D4663B958B1012D10D940F2B1
:104DB400C4410C48FDF7DCFD0B4A13691C43146124
:104DC40038BD40F2C3410748FDF7D2FD012DEED8AE
:104DD400002DF1D1044A136923EA0404146138BD97
:104DE40000360181B8DE020800100240012810B527
:104DF400044604D94FF49B610248FDF7B9FD024B08
:104E04001C6010BDB8DE020840044242012810B5FF
:104E1400044604D940F2E5410248FDF7A9FD024BDE
:104E24001C6010BDB8DE02084C00424210B50446B6
:104E340038B1031F032B04D940F205510248FDF792
:104E440097FD024B1C7010BDB8DE0208071002402B
:104E540000F0EF03212B10B504461BD0392819D0DC
:104E640041281FD061280DD0A0F17A03052B09D960
:104E740040F234510F48FDF77BFD6309012B09D043
:104E8400022B0FD00C4B04F01F04586AE04000F0D2
:104E9400010010BD084B04F01F041868E04000F046
:104EA400010010BD044B04F01F04186AE04000F038
:104EB400010010BDB8DE020800100240024A536A25
:104EC40043F080735362704700100240102810B5FD
:104ED400044608D980280AD1084B9B681C4214BF99
:104EE4000120002010BD064BC340DB07F4D440F280
:104EF4007E510448FDF73CFDEEE700BF0010024080
:104F040016010100B8DE020810F0600F10B5044667
:104F140000D120B940F2AB510248FDF729FD024B04
:104F24001C7010BDB8DE02080A10024010B5044619
:104F3400C0B120F00403022B05D0042803D069215A
:104F44000B48FDF715FD43F2D2024FF0204343F81E
:104F54002420A40004F120446FF070436360C4F87B
:104F6400043110BD43F2DB024FF020431A60F0E736
:104F740040DF0208102808B510D0B0F5807F03D0B8
:104F840084210748FDF7F4FC064B4FF0FC3218204F
:104F94004021186059609A60DA6008BD024BF4E75A
:104FA40040DF0208800000A0600000A0054B4FF025
:104FB400FC3218200021186059609A60DA601A6186
:104FC400704700BFA00000A0F8B50368044633F0A2
:104FD400060303D0B3219C48FDF7CAFC636833F091
:104FE400020303D0B4219848FDF7C2FCA36833F050
:104FF400040205D0082B03D0B5219348FDF7B8FC73
:10500400E36833F0100303D0B6218F48FDF7B0FCFA
:10501400236933F4807303D0B7218B48FDF7A8FCD0
:10502400636933F4004303D0B8218748FDF7A0FC3B
:10503400A36933F4007303D0B9218348FDF798FCC6
:10504400E36933F4806303D0BA217F48FDF790FC11
:10505400236A33F4006303D0BB217B48FDF788FC4B
:10506400636A33F4805303D0BC217748FDF780FC96
:10507400A36A33F4005303D0BD217348FDF778FCD1
:10508400E36A33F4804303D0BE216F48FDF770FC1C
:10509400236B33F4002303D0BF216B48FDF768FC76
:1050A400636B1A680F2A77D85A680F2A6ED89A68E1
:1050B400013AFE2A64D8DA680F2A5BD81A690F2AE3
:1050C40052D85A690F2A3FD89E6936F0405244D1CB
:1050D400A5686268E16845EA0200226901436069E3
:1050E4000A43A1691043E2690143206A0A43616AE1
:1050F4001043A26A0143E76A20680A43216B3A43DA
:1051040080000A4300F12040082D026072D09D689F
:10511400B7F5804F4FEA052193E8240041EA0511D1
:10512400DD6841EA02011A6941EA05415B6941EA25
:10513400025242EA036242EA0603436032D06FF04D
:105144007043C0F80431F8BDC5213F48FDF710FC99
:10515400636B9E6936F04052BAD0C6213A48FDF7D7
:1051640007FC636B9E69B3E7C4213748FDF700FC75
:10517400636BA6E7C3213448FDF7FAFB636B9DE735
:10518400C2213148FDF7F4FB636B94E7C1212E483B
:10519400FDF7EEFB636B8AE7C0212B48FDF7E8FBC4
:1051A400636B81E7A36B1A680F2A47D85A680F2AE2
:1051B4003ED89A68013AFE2A34D81A690F2A2BD8A5
:1051C4005A690F2A22D89D6935F0405217D1986840
:1051D40059681A68000240EA0111186911435A69B2
:1051E40041EA005343EA02622168184B2A4343F818
:1051F4002120F8BD026842F04002026087E7EF21F7
:105204001148FDF7B5FBA36B9D69E0E7EE210E485D
:10521400FDF7AEFBA36BD6E7ED210B48FDF7A8FB2A
:10522400A36BCDE7EC210848FDF7A2FBA36BC4E711
:10523400EB210548FDF79CFBA36BBAE7EA21024882
:10524400FDF796FBA36BB1E740DF0208040100A061
:10525400F8B503680446102B07D0B3F5807F04D05B
:1052640040F20B116A48FDF783FB636833F00203D5
:1052740004D04FF486716648FDF77AFBA36833F0D7
:10528400100304D040F20D116148FDF771FBE3688F
:1052940033F0400304D04FF487715D48FDF768FB99
:1052A400236923F4003233F4C02340F0A6806369F9
:1052B400FF2B64D8A369FF2B69D8E3691A68FF2A16
:1052C4006ED85A68FF2A74D89A68FF2A7AD8DB689D
:1052D400FF2B00F28180236A1A68FF2A00F286807D
:1052E4005A68FF2A44D89A68FF2A30D8DD68FF2D0F
:1052F40036D86168A268E6680A4342F0080232437D
:105304002669E76932436669B968D4F818E042EA65
:10531400462226687C689868090441EA042459688E
:1053240000041B6840EA012018433B68102EFF6804
:1053340044EA03010CBF374B374B42EA4E3241EA91
:10534400076140EA05601A609960D860F8BD4FF4BF
:105354008C712F48FDF70CFB236ADD68FF2DC8D93B
:1053640040F219112A48FDF703FB236ADD68C0E700
:1053740040F217112648FDF7FBFA236AB3E74FF40E
:1053840088712348FDF7F4FAA369FF2B95D940F2FD
:1053940011111F48FDF7ECFAE3691A68FF2A90D946
:1053A4004FF489711A48FDF7E3FAE3695A68FF2A52
:1053B4008AD940F213111648FDF7DAFAE3699A68BC
:1053C400FF2A84D94FF48A711148FDF7D1FAE369B1
:1053D400DB68FF2B7FF67FAF40F215110C48FDF719
:1053E400C7FA236A1A68FF2A7FF67AAF4FF48B71E3
:1053F4000748FDF7BDFA236A72E7B2F5002F3FF4C0
:1054040056AF40F20F110248FDF7B2FA4FE700BF62
:1054140040DF0208600000A0800000A0F8B5036827
:10542400044633F0020304D040F24B116048FDF708
:105434009FFA6368FF2B00F2B480A368FF2B00F28D
:10544400AA80E3681A68FF2A00F29E805A68FF2A3D
:1054540000F293809A68FF2A00F28880DB68FF2BB1
:105464007ED823691A68FF2A73D85A68FF2A69D834
:105474009A68FF2A5FD8DB68FF2B56D863691A68DD
:10548400FF2A4BD85A68FF2A41D89A68FF2A37D88E
:10549400D868FF2806D9464840F25B11FDF768FA40
:1054A4006369D86894E82400A66842F0100141EAD0
:1054B4004522404DE76842EA46322A60B9687E6870
:1054C4000A04396842EA0622FE680A43246942EA69
:1054D4000662AA60A16866680A04216842EA062294
:1054E400E4680A4342EA0462EA609A685C68110468
:1054F4001A6841EA0423134343EA00632B61F8BDAD
:105504004FF4AD712A48FDF733FA6369C0E740F2FE
:1055140059112748FDF72CFA6369B6E74FF4AC71CB
:105524002348FDF725FA6369ACE740F25711204898
:10553400FDF71EFAA2E74FF4AB711D48FDF718FA08
:10554400236998E740F255111948FDF711FA2369C8
:105554008EE74FF4AA711648FDF70AFA236984E727
:105564004FF4A9711248FDF703FA7AE740F251119A
:105574000F48FDF7FDF9E36870E74FF4A8710C4894
:10558400FDF7F6F9E36865E740F24F110848FDF7C7
:10559400EFF9E3685AE740F24D110548FDF7E8F9E1
:1055A4004FE74FF4A6710248FDF7E2F945E700BF63
:1055B40040DF0208A00000A0F0B4816B446B022518
:1055C400456000230F22FF254FF480574FF4005607
:1055D4004762866203608360C360036143618361E1
:1055E400C3610362C3620363A36122606260E26019
:1055F40022616261A5600A604A608D60CA600A61C6
:105604004A618B61F0BC704730B4016AC469FC2301
:1056140000221025056042608260C260026142611E
:10562400826123606360A360E3600B604B608B6006
:10563400CB6030BC704700BF30B40169C4684269B4
:10564400FC23002505604560856023606360A360DA
:10565400E3600B604B608B60CB6030BC13605360C5
:105664009360D360704700BF38B530F0060304463A
:105674000D4604D040F2DD110D48FDF779F9012DF6
:105684000CD94FF4EF710A48FDF772F9A40004F144
:105694002044236843F00103236038BD002DF5D175
:1056A400A40004F120442268024B1340236038BD57
:1056B40040DF0208FEFF0F00102838B504460D46EF
:1056C40007D0B0F5807F04D040F2F7110E48FDF703
:1056D4004FF9012D0DD94FF4FC710B48FDF748F932
:1056E400102C0CBF094A0A4A136843F004031360E0
:1056F40038BD002DF4D1102C0CBF044A044A054BCC
:1057040011680B40136038BD40DF0208600000A040
:10571400800000A0FBFF0F00012808B50AD94FF450
:1057240007710848FDF724F9074A136843F0040396
:10573400136008BD0028F7D1034A044B11680B40DD
:10574400136008BD40DF0208A00000A0FBFF0F00AB
:10575400102838B504460D4607D0B0F5807F04D034
:1057640040F236210E48FDF703F9012D0DD940F220
:1057740037210B48FDF7FCF8102C0CBF094A0A4AE4
:10578400136843F04003136038BD002DF4D1102C8E
:105794000CBF044A044A054B11680B40136038BD22
:1057A40040DF0208600000A0800000A0BFFF0F00DF
:1057B40010280CBF014B024B58697047600000A0D1
:1057C400800000A0102870B504460D4616460AD085
:1057D400B0F5807F07D0B0F5805F04D040F27F2120
:1057E4001C48FDF7C5F835F0380312D18DB1012EF0
:1057F40016D940F281211748FDF7BAF8102C1DD0B4
:10580400B4F5807F0CBF144A144A53681D43556095
:1058140070BD4FF420710F48FDF7AAF8012EE8D8A7
:10582400002EEBD1102C0ED0B4F5807F0CBF0A4AA9
:105834000A4A536823EA0505556070BD084A53684F
:105844001D43556070BD064A536823EA050555603B
:1058540070BD00BF40DF0208800000A0A00000A0CF
:10586400600000A0102838B504460D4622D0B0F5DB
:10587400807F25D0B0F5805F04D040F2BF21164868
:10588400FDF776F86B1E012B0DD9042D0BD0402D9E
:1058940004D04FF430711048FDF76AF8102C0CD086
:1058A400B4F5807F11D00D4B5B682B4214BF0120EF
:1058B400002038BD4B1E012B0AD8094B5B68F4E766
:1058C4004B1E012B01D90429E1D1064B5B68ECE79F
:1058D4000429DCD1F1E700BF40DF0208A00000A0EA
:1058E400600000A0800000A0102838B504460D46D2
:1058F4000AD0B0F5807F07D0B0F5805F04D040F2C5
:10590400EE211048FDF734F835F007030CD15DB1F2
:10591400102C10D0B4F5807F0CBF0B4A0B4A53688F
:1059240023EA0505556038BD40F2EF210548FDF72F
:105934001FF8102CEED1064A536823EA050555607A
:1059440038BD00BF40DF0208800000A0A00000A016
:10595400600000A0102838B505460C4626D0B0F5E6
:10596400807F28D0B0F5805F04D04FF4457117488C
:10597400FCF7FEFF082C0DD0102C0BD0202C04D0EB
:1059840040F215311148FCF7F3FF102D10D0B5F596
:10599400807F14D00E4B5B6813EA040005D013EA31
:1059A400D40314BF0120002038BD38BD082909D113
:1059B400084B5B68F0E7082901D01029DED1064BBB
:1059C4005B68E9E71029D9D1F2E700BF40DF02089C
:1059D400A00000A0600000A0800000A0102838B53E
:1059E40004460D460AD0B0F5807F07D0B0F5805F3D
:1059F40004D04FF451711048FCF7BAFF35F0380366
:105A04000CD15DB1102C10D0B4F5807F0CBF0B4AC3
:105A14000B4A536823EAD505556038BD40F2453139
:105A24000548FCF7A5FF102CEED1064A536823EA7B
:105A3400D505556038BD00BF40DF0208800000A0D6
:105A4400A00000A0600000A0D8DF02080000002031
:105A5400980000209C000020D8020020064B10B5BE
:105A64001A781C4632B9054B13B10548AFF30080D0
:105A74000123237010BD00BF0C01002000000000B2
:105A840074650008074B10B51BB107490748AFF30D
:105A940000800748036823B1064B13B1BDE81040EA
:105AA400184710BD000000001001002074650008B4
:105AB4009800002000000000002301461A46184602
:105AC40000F056B808B5074B044613B1002100F0A6
